{
  "contractName": "Alg",
  "abi": [
    {
      "anonymous": false,
      "inputs": [
        {
          "indexed": true,
          "internalType": "address",
          "name": "previousOwner",
          "type": "address"
        },
        {
          "indexed": true,
          "internalType": "address",
          "name": "newOwner",
          "type": "address"
        }
      ],
      "name": "OwnershipTransferred",
      "type": "event"
    },
    {
      "anonymous": false,
      "inputs": [
        {
          "indexed": false,
          "internalType": "address",
          "name": "depositedFrom",
          "type": "address"
        },
        {
          "indexed": false,
          "internalType": "address",
          "name": "depositedTo",
          "type": "address"
        },
        {
          "indexed": false,
          "internalType": "uint256",
          "name": "amount",
          "type": "uint256"
        },
        {
          "indexed": false,
          "internalType": "string",
          "name": "ticker",
          "type": "string"
        }
      ],
      "name": "deposited",
      "type": "event"
    },
    {
      "inputs": [
        {
          "internalType": "string",
          "name": "ticker",
          "type": "string"
        },
        {
          "internalType": "address",
          "name": "tokenAddress",
          "type": "address"
        }
      ],
      "name": "addToken",
      "outputs": [],
      "stateMutability": "nonpayable",
      "type": "function"
    },
    {
      "inputs": [
        {
          "internalType": "address",
          "name": "",
          "type": "address"
        },
        {
          "internalType": "string",
          "name": "",
          "type": "string"
        }
      ],
      "name": "balances",
      "outputs": [
        {
          "internalType": "uint256",
          "name": "",
          "type": "uint256"
        }
      ],
      "stateMutability": "view",
      "type": "function"
    },
    {
      "inputs": [
        {
          "internalType": "uint256",
          "name": "amount",
          "type": "uint256"
        },
        {
          "internalType": "string",
          "name": "ticker",
          "type": "string"
        }
      ],
      "name": "deposit",
      "outputs": [
        {
          "internalType": "bool",
          "name": "_success",
          "type": "bool"
        }
      ],
      "stateMutability": "nonpayable",
      "type": "function"
    },
    {
      "inputs": [
        {
          "internalType": "address",
          "name": "tokenHolder",
          "type": "address"
        },
        {
          "internalType": "string",
          "name": "ticker",
          "type": "string"
        }
      ],
      "name": "getBalance",
      "outputs": [
        {
          "internalType": "uint256",
          "name": "",
          "type": "uint256"
        }
      ],
      "stateMutability": "view",
      "type": "function"
    },
    {
      "inputs": [],
      "name": "getOwner",
      "outputs": [
        {
          "internalType": "address",
          "name": "",
          "type": "address"
        }
      ],
      "stateMutability": "view",
      "type": "function"
    },
    {
      "inputs": [],
      "name": "owner",
      "outputs": [
        {
          "internalType": "address",
          "name": "",
          "type": "address"
        }
      ],
      "stateMutability": "view",
      "type": "function"
    },
    {
      "inputs": [],
      "name": "renounceOwnership",
      "outputs": [],
      "stateMutability": "nonpayable",
      "type": "function"
    },
    {
      "inputs": [
        {
          "internalType": "uint256",
          "name": "",
          "type": "uint256"
        }
      ],
      "name": "tokenList",
      "outputs": [
        {
          "internalType": "string",
          "name": "",
          "type": "string"
        }
      ],
      "stateMutability": "view",
      "type": "function"
    },
    {
      "inputs": [
        {
          "internalType": "string",
          "name": "",
          "type": "string"
        }
      ],
      "name": "tokenMapping",
      "outputs": [
        {
          "internalType": "string",
          "name": "ticker",
          "type": "string"
        },
        {
          "internalType": "address",
          "name": "tokenAddress",
          "type": "address"
        }
      ],
      "stateMutability": "view",
      "type": "function"
    },
    {
      "inputs": [
        {
          "internalType": "address",
          "name": "newOwner",
          "type": "address"
        }
      ],
      "name": "transferOwnership",
      "outputs": [],
      "stateMutability": "nonpayable",
      "type": "function"
    },
    {
      "inputs": [
        {
          "internalType": "uint256",
          "name": "amount",
          "type": "uint256"
        },
        {
          "internalType": "string",
          "name": "ticker",
          "type": "string"
        }
      ],
      "name": "withdraw",
      "outputs": [],
      "stateMutability": "nonpayable",
      "type": "function"
    },
    {
      "inputs": [
        {
          "internalType": "string",
          "name": "ticker",
          "type": "string"
        }
      ],
      "name": "settleOrders",
      "outputs": [],
      "stateMutability": "nonpayable",
      "type": "function"
    },
    {
      "inputs": [
        {
          "internalType": "enum Alg.Side",
          "name": "side",
          "type": "uint8"
        },
        {
          "internalType": "string",
          "name": "ticker",
          "type": "string"
        },
        {
          "internalType": "int256",
          "name": "low",
          "type": "int256"
        },
        {
          "internalType": "int256",
          "name": "high",
          "type": "int256"
        }
      ],
      "name": "sortOrder",
      "outputs": [],
      "stateMutability": "nonpayable",
      "type": "function"
    }
  ],
  "bytecode": "0x608060405260006004553480156200001657600080fd5b50600062000029620000cd60201b60201c565b9050806000806101000a81548173ffffffffffffffffffffffffffffffffffffffff021916908373ffffffffffffffffffffffffffffffffffffffff1602179055508073ffffffffffffffffffffffffffffffffffffffff16600073ffffffffffffffffffffffffffffffffffffffff167f8be0079c531659141344cd1fd0a4f28419497f9722a3daafe3b4186f6b6457e060405160405180910390a350620000d5565b600033905090565b61423980620000e56000396000f3fe608060405234801561001057600080fd5b50600436106100cf5760003560e01c80638da5cb5b1161008c578063dc048cf211610066578063dc048cf2146101fe578063e88ad9531461021a578063f1215d251461024b578063f2fde38b1461027b576100cf565b80638da5cb5b146101945780639ead7222146101b2578063b0b22c2c146101e2576100cf565b806305d01f50146100d45780631dd7cecf146101045780633fa6b1c0146101345780634bfcb9ff14610150578063715018a61461016c578063893d20e814610176575b600080fd5b6100ee60048036038101906100e99190613816565b610297565b6040516100fb9190613c74565b60405180910390f35b61011e60048036038101906101199190613816565b6102d2565b60405161012b9190613c74565b60405180910390f35b61014e60048036038101906101499190613893565b610338565b005b61016a6004803603810190610165919061390e565b611955565b005b610174612ba5565b005b61017e612cdf565b60405161018b9190613b4c565b60405180910390f35b61019c612ce7565b6040516101a99190613b4c565b60405180910390f35b6101cc60048036038101906101c791906139a3565b612d10565b6040516101d99190613be2565b60405180910390f35b6101fc60048036038101906101f7919061394f565b612dbc565b005b610218600480360381019061021391906139cc565b612f28565b005b610234600480360381019061022f919061390e565b613150565b604051610242929190613c04565b60405180910390f35b610265600480360381019061026091906139cc565b613232565b6040516102729190613bc7565b60405180910390f35b610295600480360381019061029091906137ed565b6133fb565b005b600360205281600052604060002081805160208101820180518482526020830160208501208183528095505050505050600091509150505481565b6000600360008473ffffffffffffffffffffffffffffffffffffffff1673ffffffffffffffffffffffffffffffffffffffff168152602001908152602001600020826040516103219190613b20565b908152602001604051809103902054905092915050565b60006001811115610372577f4e487b7100000000000000000000000000000000000000000000000000000000600052602160045260246000fd5b8460018111156103ab577f4e487b7100000000000000000000000000000000000000000000000000000000600052602160045260246000fd5b1415610e825780821215610e7d5760006006846040516103cb9190613b20565b90815260200160405180910390206000866001811115610414577f4e487b7100000000000000000000000000000000000000000000000000000000600052602160045260246000fd5b8152602001908152602001600020828154811061045a577f4e487b7100000000000000000000000000000000000000000000000000000000600052603260045260246000fd5b9060005260206000209060070201600501549050600060018461047d9190613e50565b905060008490505b838112156109b8578260068760405161049e9190613b20565b908152602001604051809103902060008960018111156104e7577f4e487b7100000000000000000000000000000000000000000000000000000000600052602160045260246000fd5b8152602001908152602001600020828154811061052d577f4e487b7100000000000000000000000000000000000000000000000000000000600052603260045260246000fd5b906000526020600020906007020160050154136109a557818061054f9061400f565b9250508082146109a4576006866040516105699190613b20565b908152602001604051809103902060008860018111156105b2577f4e487b7100000000000000000000000000000000000000000000000000000000600052602160045260246000fd5b815260200190815260200160002081815481106105f8577f4e487b7100000000000000000000000000000000000000000000000000000000600052603260045260246000fd5b90600052602060002090600702016005015460068760405161061a9190613b20565b90815260200160405180910390206000896001811115610663577f4e487b7100000000000000000000000000000000000000000000000000000000600052602160045260246000fd5b815260200190815260200160002083815481106106a9577f4e487b7100000000000000000000000000000000000000000000000000000000600052603260045260246000fd5b9060005260206000209060070201600501600082825418925050819055506006866040516106d79190613b20565b90815260200160405180910390206000886001811115610720577f4e487b7100000000000000000000000000000000000000000000000000000000600052602160045260246000fd5b81526020019081526020016000208281548110610766577f4e487b7100000000000000000000000000000000000000000000000000000000600052603260045260246000fd5b9060005260206000209060070201600501546006876040516107889190613b20565b908152602001604051809103902060008960018111156107d1577f4e487b7100000000000000000000000000000000000000000000000000000000600052602160045260246000fd5b81526020019081526020016000208281548110610817577f4e487b7100000000000000000000000000000000000000000000000000000000600052603260045260246000fd5b9060005260206000209060070201600501600082825418925050819055506006866040516108459190613b20565b9081526020016040518091039020600088600181111561088e577f4e487b7100000000000000000000000000000000000000000000000000000000600052602160045260246000fd5b815260200190815260200160002081815481106108d4577f4e487b7100000000000000000000000000000000000000000000000000000000600052603260045260246000fd5b9060005260206000209060070201600501546006876040516108f69190613b20565b9081526020016040518091039020600089600181111561093f577f4e487b7100000000000000000000000000000000000000000000000000000000600052602160045260246000fd5b81526020019081526020016000208381548110610985577f4e487b7100000000000000000000000000000000000000000000000000000000600052603260045260246000fd5b9060005260206000209060070201600501600082825418925050819055505b5b80806109b09061400f565b915050610485565b50826001826109c79190613d0c565b14610e3b576006856040516109dc9190613b20565b90815260200160405180910390206000876001811115610a25577f4e487b7100000000000000000000000000000000000000000000000000000000600052602160045260246000fd5b81526020019081526020016000208381548110610a6b577f4e487b7100000000000000000000000000000000000000000000000000000000600052603260045260246000fd5b906000526020600020906007020160050154600686604051610a8d9190613b20565b90815260200160405180910390206000886001811115610ad6577f4e487b7100000000000000000000000000000000000000000000000000000000600052602160045260246000fd5b8152602001908152602001600020600183610af19190613d0c565b81548110610b28577f4e487b7100000000000000000000000000000000000000000000000000000000600052603260045260246000fd5b906000526020600020906007020160050160008282541892505081905550600685604051610b569190613b20565b90815260200160405180910390206000876001811115610b9f577f4e487b7100000000000000000000000000000000000000000000000000000000600052602160045260246000fd5b8152602001908152602001600020600182610bba9190613d0c565b81548110610bf1577f4e487b7100000000000000000000000000000000000000000000000000000000600052603260045260246000fd5b906000526020600020906007020160050154600686604051610c139190613b20565b90815260200160405180910390206000886001811115610c5c577f4e487b7100000000000000000000000000000000000000000000000000000000600052602160045260246000fd5b81526020019081526020016000208481548110610ca2577f4e487b7100000000000000000000000000000000000000000000000000000000600052603260045260246000fd5b906000526020600020906007020160050160008282541892505081905550600685604051610cd09190613b20565b90815260200160405180910390206000876001811115610d19577f4e487b7100000000000000000000000000000000000000000000000000000000600052602160045260246000fd5b81526020019081526020016000208381548110610d5f577f4e487b7100000000000000000000000000000000000000000000000000000000600052603260045260246000fd5b906000526020600020906007020160050154600686604051610d819190613b20565b90815260200160405180910390206000886001811115610dca577f4e487b7100000000000000000000000000000000000000000000000000000000600052602160045260246000fd5b8152602001908152602001600020600183610de59190613d0c565b81548110610e1c577f4e487b7100000000000000000000000000000000000000000000000000000000600052603260045260246000fd5b9060005260206000209060070201600501600082825418925050819055505b600181610e489190613d0c565b9150610e62868686600186610e5d9190613e50565b610338565b610e7a8686600185610e749190613d0c565b86610338565b50505b61194f565b8082121561194e576000600684604051610e9c9190613b20565b90815260200160405180910390206000866001811115610ee5577f4e487b7100000000000000000000000000000000000000000000000000000000600052602160045260246000fd5b81526020019081526020016000208281548110610f2b577f4e487b7100000000000000000000000000000000000000000000000000000000600052603260045260246000fd5b90600052602060002090600702016005015490506000600184610f4e9190613e50565b905060008490505b838112156114895782600687604051610f6f9190613b20565b90815260200160405180910390206000896001811115610fb8577f4e487b7100000000000000000000000000000000000000000000000000000000600052602160045260246000fd5b81526020019081526020016000208281548110610ffe577f4e487b7100000000000000000000000000000000000000000000000000000000600052603260045260246000fd5b906000526020600020906007020160050154126114765781806110209061400f565b9250508082146114755760068660405161103a9190613b20565b90815260200160405180910390206000886001811115611083577f4e487b7100000000000000000000000000000000000000000000000000000000600052602160045260246000fd5b815260200190815260200160002081815481106110c9577f4e487b7100000000000000000000000000000000000000000000000000000000600052603260045260246000fd5b9060005260206000209060070201600501546006876040516110eb9190613b20565b90815260200160405180910390206000896001811115611134577f4e487b7100000000000000000000000000000000000000000000000000000000600052602160045260246000fd5b8152602001908152602001600020838154811061117a577f4e487b7100000000000000000000000000000000000000000000000000000000600052603260045260246000fd5b9060005260206000209060070201600501600082825418925050819055506006866040516111a89190613b20565b908152602001604051809103902060008860018111156111f1577f4e487b7100000000000000000000000000000000000000000000000000000000600052602160045260246000fd5b81526020019081526020016000208281548110611237577f4e487b7100000000000000000000000000000000000000000000000000000000600052603260045260246000fd5b9060005260206000209060070201600501546006876040516112599190613b20565b908152602001604051809103902060008960018111156112a2577f4e487b7100000000000000000000000000000000000000000000000000000000600052602160045260246000fd5b815260200190815260200160002082815481106112e8577f4e487b7100000000000000000000000000000000000000000000000000000000600052603260045260246000fd5b9060005260206000209060070201600501600082825418925050819055506006866040516113169190613b20565b9081526020016040518091039020600088600181111561135f577f4e487b7100000000000000000000000000000000000000000000000000000000600052602160045260246000fd5b815260200190815260200160002081815481106113a5577f4e487b7100000000000000000000000000000000000000000000000000000000600052603260045260246000fd5b9060005260206000209060070201600501546006876040516113c79190613b20565b90815260200160405180910390206000896001811115611410577f4e487b7100000000000000000000000000000000000000000000000000000000600052602160045260246000fd5b81526020019081526020016000208381548110611456577f4e487b7100000000000000000000000000000000000000000000000000000000600052603260045260246000fd5b9060005260206000209060070201600501600082825418925050819055505b5b80806114819061400f565b915050610f56565b50826001826114989190613d0c565b1461190c576006856040516114ad9190613b20565b908152602001604051809103902060008760018111156114f6577f4e487b7100000000000000000000000000000000000000000000000000000000600052602160045260246000fd5b8152602001908152602001600020838154811061153c577f4e487b7100000000000000000000000000000000000000000000000000000000600052603260045260246000fd5b90600052602060002090600702016005015460068660405161155e9190613b20565b908152602001604051809103902060008860018111156115a7577f4e487b7100000000000000000000000000000000000000000000000000000000600052602160045260246000fd5b81526020019081526020016000206001836115c29190613d0c565b815481106115f9577f4e487b7100000000000000000000000000000000000000000000000000000000600052603260045260246000fd5b9060005260206000209060070201600501600082825418925050819055506006856040516116279190613b20565b90815260200160405180910390206000876001811115611670577f4e487b7100000000000000000000000000000000000000000000000000000000600052602160045260246000fd5b815260200190815260200160002060018261168b9190613d0c565b815481106116c2577f4e487b7100000000000000000000000000000000000000000000000000000000600052603260045260246000fd5b9060005260206000209060070201600501546006866040516116e49190613b20565b9081526020016040518091039020600088600181111561172d577f4e487b7100000000000000000000000000000000000000000000000000000000600052602160045260246000fd5b81526020019081526020016000208481548110611773577f4e487b7100000000000000000000000000000000000000000000000000000000600052603260045260246000fd5b9060005260206000209060070201600501600082825418925050819055506006856040516117a19190613b20565b908152602001604051809103902060008760018111156117ea577f4e487b7100000000000000000000000000000000000000000000000000000000600052602160045260246000fd5b81526020019081526020016000208381548110611830577f4e487b7100000000000000000000000000000000000000000000000000000000600052603260045260246000fd5b9060005260206000209060070201600501546006866040516118529190613b20565b9081526020016040518091039020600088600181111561189b577f4e487b7100000000000000000000000000000000000000000000000000000000600052602160045260246000fd5b81526020019081526020016000206001836118b69190613d0c565b815481106118ed577f4e487b7100000000000000000000000000000000000000000000000000000000600052603260045260246000fd5b9060005260206000209060070201600501600082825418925050819055505b6001816119199190613d0c565b915061193386868660018661192e9190613e50565b610338565b61194b86866001856119459190613d0c565b86610338565b50505b5b50505050565b60006006826040516119679190613b20565b908152602001604051809103902060008060018111156119b0577f4e487b7100000000000000000000000000000000000000000000000000000000600052602160045260246000fd5b8152602001908152602001600020905060006006836040516119d29190613b20565b90815260200160405180910390206000600180811115611a1b577f4e487b7100000000000000000000000000000000000000000000000000000000600052602160045260246000fd5b8152602001908152602001600020905060008060005b600084805490501115612b9d57600085805490501415611a5057612b9d565b848381548110611a89577f4e487b7100000000000000000000000000000000000000000000000000000000600052603260045260246000fd5b906000526020600020906007020160020154848481548110611ad4577f4e487b7100000000000000000000000000000000000000000000000000000000600052603260045260246000fd5b9060005260206000209060070201600201541415611d5e5760009050838381548110611b29577f4e487b7100000000000000000000000000000000000000000000000000000000600052603260045260246000fd5b9060005260206000209060070201600201549050838381548110611b76577f4e487b7100000000000000000000000000000000000000000000000000000000600052603260045260246000fd5b906000526020600020906007020160020154848481548110611bc1577f4e487b7100000000000000000000000000000000000000000000000000000000600052603260045260246000fd5b90600052602060002090600702016002016000828254611be19190613ee4565b92505081905550848381548110611c21577f4e487b7100000000000000000000000000000000000000000000000000000000600052603260045260246000fd5b906000526020600020906007020160020154858481548110611c6c577f4e487b7100000000000000000000000000000000000000000000000000000000600052603260045260246000fd5b90600052602060002090600702016002016000828254611c8c9190613ee4565b925050819055506001848481548110611cce577f4e487b7100000000000000000000000000000000000000000000000000000000600052603260045260246000fd5b906000526020600020906007020160060160006101000a81548160ff0219169083151502179055506001858481548110611d31577f4e487b7100000000000000000000000000000000000000000000000000000000600052603260045260246000fd5b906000526020600020906007020160060160006101000a81548160ff0219169083151502179055506122b2565b848381548110611d97577f4e487b7100000000000000000000000000000000000000000000000000000000600052603260045260246000fd5b906000526020600020906007020160020154848481548110611de2577f4e487b7100000000000000000000000000000000000000000000000000000000600052603260045260246000fd5b90600052602060002090600702016002015411156120095760009050848381548110611e37577f4e487b7100000000000000000000000000000000000000000000000000000000600052603260045260246000fd5b9060005260206000209060070201600201549050848381548110611e84577f4e487b7100000000000000000000000000000000000000000000000000000000600052603260045260246000fd5b906000526020600020906007020160020154848481548110611ecf577f4e487b7100000000000000000000000000000000000000000000000000000000600052603260045260246000fd5b90600052602060002090600702016002016000828254611eef9190613ee4565b92505081905550848381548110611f2f577f4e487b7100000000000000000000000000000000000000000000000000000000600052603260045260246000fd5b906000526020600020906007020160020154858481548110611f7a577f4e487b7100000000000000000000000000000000000000000000000000000000600052603260045260246000fd5b90600052602060002090600702016002016000828254611f9a9190613ee4565b925050819055506001858481548110611fdc577f4e487b7100000000000000000000000000000000000000000000000000000000600052603260045260246000fd5b906000526020600020906007020160060160006101000a81548160ff0219169083151502179055506122b1565b848381548110612042577f4e487b7100000000000000000000000000000000000000000000000000000000600052603260045260246000fd5b90600052602060002090600702016002015484848154811061208d577f4e487b7100000000000000000000000000000000000000000000000000000000600052603260045260246000fd5b90600052602060002090600702016002015410156122b057600090508383815481106120e2577f4e487b7100000000000000000000000000000000000000000000000000000000600052603260045260246000fd5b906000526020600020906007020160020154905083838154811061212f577f4e487b7100000000000000000000000000000000000000000000000000000000600052603260045260246000fd5b90600052602060002090600702016002015484848154811061217a577f4e487b7100000000000000000000000000000000000000000000000000000000600052603260045260246000fd5b9060005260206000209060070201600201600082825461219a9190613ee4565b925050819055508383815481106121da577f4e487b7100000000000000000000000000000000000000000000000000000000600052603260045260246000fd5b906000526020600020906007020160020154858481548110612225577f4e487b7100000000000000000000000000000000000000000000000000000000600052603260045260246000fd5b906000526020600020906007020160020160008282546122459190613ee4565b925050819055506001848481548110612287577f4e487b7100000000000000000000000000000000000000000000000000000000600052603260045260246000fd5b906000526020600020906007020160060160006101000a81548160ff0219169083151502179055505b5b5b8483815481106122eb577f4e487b7100000000000000000000000000000000000000000000000000000000600052603260045260246000fd5b906000526020600020906007020160050154816123089190613df6565b915080600360003373ffffffffffffffffffffffffffffffffffffffff1673ffffffffffffffffffffffffffffffffffffffff168152602001908152602001600020876040516123589190613b20565b908152602001604051809103902060008282546123759190613da0565b9250508190555081600360003373ffffffffffffffffffffffffffffffffffffffff1673ffffffffffffffffffffffffffffffffffffffff1681526020019081526020016000206040516123c890613b37565b908152602001604051809103902060008282546123e59190613ee4565b92505081905550806003600086868154811061242a577f4e487b7100000000000000000000000000000000000000000000000000000000600052603260045260246000fd5b906000526020600020906007020160000160009054906101000a900473ffffffffffffffffffffffffffffffffffffffff1673ffffffffffffffffffffffffffffffffffffffff1673ffffffffffffffffffffffffffffffffffffffff168152602001908152602001600020876040516124a49190613b20565b908152602001604051809103902060008282546124c19190613ee4565b925050819055508160036000868681548110612506577f4e487b7100000000000000000000000000000000000000000000000000000000600052603260045260246000fd5b906000526020600020906007020160000160009054906101000a900473ffffffffffffffffffffffffffffffffffffffff1673ffffffffffffffffffffffffffffffffffffffff1673ffffffffffffffffffffffffffffffffffffffff16815260200190815260200160002060405161257e90613b37565b9081526020016040518091039020600082825461259b9190613da0565b925050819055508383815481106125db577f4e487b7100000000000000000000000000000000000000000000000000000000600052603260045260246000fd5b906000526020600020906007020160060160009054906101000a900460ff161561289d5783600185805490506126119190613ee4565b81548110612648577f4e487b7100000000000000000000000000000000000000000000000000000000600052603260045260246000fd5b906000526020600020906007020184848154811061268f577f4e487b7100000000000000000000000000000000000000000000000000000000600052603260045260246000fd5b90600052602060002090600702016000820160009054906101000a900473ffffffffffffffffffffffffffffffffffffffff168160000160006101000a81548173ffffffffffffffffffffffffffffffffffffffff021916908373ffffffffffffffffffffffffffffffffffffffff160217905550600182018160010190805461271890613fac565b6127239291906135ac565b50600282015481600201556003820160009054906101000a900460ff168160030160006101000a81548160ff0219169083600181111561278c577f4e487b7100000000000000000000000000000000000000000000000000000000600052602160045260246000fd5b021790555060048201548160040155600582015481600501556006820160009054906101000a900460ff168160060160006101000a81548160ff0219169083151502179055509050508380548061280c577f4e487b7100000000000000000000000000000000000000000000000000000000600052603160045260246000fd5b6001900381819060005260206000209060070201600080820160006101000a81549073ffffffffffffffffffffffffffffffffffffffff02191690556001820160006128589190613639565b60028201600090556003820160006101000a81549060ff0219169055600482016000905560058201600090556006820160006101000a81549060ff0219169055505090555b8483815481106128d6577f4e487b7100000000000000000000000000000000000000000000000000000000600052603260045260246000fd5b906000526020600020906007020160060160009054906101000a900460ff1615612b9857846001868054905061290c9190613ee4565b81548110612943577f4e487b7100000000000000000000000000000000000000000000000000000000600052603260045260246000fd5b906000526020600020906007020185848154811061298a577f4e487b7100000000000000000000000000000000000000000000000000000000600052603260045260246000fd5b90600052602060002090600702016000820160009054906101000a900473ffffffffffffffffffffffffffffffffffffffff168160000160006101000a81548173ffffffffffffffffffffffffffffffffffffffff021916908373ffffffffffffffffffffffffffffffffffffffff1602179055506001820181600101908054612a1390613fac565b612a1e9291906135ac565b50600282015481600201556003820160009054906101000a900460ff168160030160006101000a81548160ff02191690836001811115612a87577f4e487b7100000000000000000000000000000000000000000000000000000000600052602160045260246000fd5b021790555060048201548160040155600582015481600501556006820160009054906101000a900460ff168160060160006101000a81548160ff02191690831515021790555090505084805480612b07577f4e487b7100000000000000000000000000000000000000000000000000000000600052603160045260246000fd5b6001900381819060005260206000209060070201600080820160006101000a81549073ffffffffffffffffffffffffffffffffffffffff0219169055600182016000612b539190613639565b60028201600090556003820160006101000a81549060ff0219169055600482016000905560058201600090556006820160006101000a81549060ff0219169055505090555b611a31565b505050505050565b612bad6135a4565b73ffffffffffffffffffffffffffffffffffffffff16612bcb612ce7565b73ffffffffffffffffffffffffffffffffffffffff1614612c21576040517f08c379a0000000000000000000000000000000000000000000000000000000008152600401612c1890613c54565b60405180910390fd5b600073ffffffffffffffffffffffffffffffffffffffff1660008054906101000a900473ffffffffffffffffffffffffffffffffffffffff1673ffffffffffffffffffffffffffffffffffffffff167f8be0079c531659141344cd1fd0a4f28419497f9722a3daafe3b4186f6b6457e060405160405180910390a360008060006101000a81548173ffffffffffffffffffffffffffffffffffffffff021916908373ffffffffffffffffffffffffffffffffffffffff160217905550565b600033905090565b60008060009054906101000a900473ffffffffffffffffffffffffffffffffffffffff16905090565b60028181548110612d2057600080fd5b906000526020600020016000915090508054612d3b90613fac565b80601f0160208091040260200160405190810160405280929190818152602001828054612d6790613fac565b8015612db45780601f10612d8957610100808354040283529160200191612db4565b820191906000526020600020905b815481529060010190602001808311612d9757829003601f168201915b505050505081565b612dc46135a4565b73ffffffffffffffffffffffffffffffffffffffff16612de2612ce7565b73ffffffffffffffffffffffffffffffffffffffff1614612e38576040517f08c379a0000000000000000000000000000000000000000000000000000000008152600401612e2f90613c54565b60405180910390fd5b60405180604001604052808381526020018273ffffffffffffffffffffffffffffffffffffffff16815250600183604051612e739190613b20565b90815260200160405180910390206000820151816000019080519060200190612e9d929190613679565b5060208201518160010160006101000a81548173ffffffffffffffffffffffffffffffffffffffff021916908373ffffffffffffffffffffffffffffffffffffffff160217905550905050600282908060018154018082558091505060019003906000526020600020016000909190919091509080519060200190612f23929190613679565b505050565b600073ffffffffffffffffffffffffffffffffffffffff16600182604051612f509190613b20565b908152602001604051809103902060010160009054906101000a900473ffffffffffffffffffffffffffffffffffffffff1673ffffffffffffffffffffffffffffffffffffffff161415612fa357600080fd5b81600360003373ffffffffffffffffffffffffffffffffffffffff1673ffffffffffffffffffffffffffffffffffffffff16815260200190815260200160002082604051612ff19190613b20565b908152602001604051809103902054101561300b57600080fd5b81600360003373ffffffffffffffffffffffffffffffffffffffff1673ffffffffffffffffffffffffffffffffffffffff168152602001908152602001600020826040516130599190613b20565b908152602001604051809103902060008282546130769190613da0565b9250508190555060018160405161308d9190613b20565b908152602001604051809103902060010160009054906101000a900473ffffffffffffffffffffffffffffffffffffffff1673ffffffffffffffffffffffffffffffffffffffff1663a9059cbb33846040518363ffffffff1660e01b81526004016130f9929190613b9e565b602060405180830381600087803b15801561311357600080fd5b505af1158015613127573d6000803e3d6000fd5b505050506040513d601f19601f8201168201806040525081019061314b919061386a565b505050565b60018180516020810182018051848252602083016020850120818352809550505050505060009150905080600001805461318990613fac565b80601f01602080910402602001604051908101604052809291908181526020018280546131b590613fac565b80156132025780601f106131d757610100808354040283529160200191613202565b820191906000526020600020905b8154815290600101906020018083116131e557829003601f168201915b5050505050908060010160009054906101000a900473ffffffffffffffffffffffffffffffffffffffff16905082565b60008073ffffffffffffffffffffffffffffffffffffffff1660018360405161325b9190613b20565b908152602001604051809103902060010160009054906101000a900473ffffffffffffffffffffffffffffffffffffffff1673ffffffffffffffffffffffffffffffffffffffff1614156132ae57600080fd5b6001826040516132be9190613b20565b908152602001604051809103902060010160009054906101000a900473ffffffffffffffffffffffffffffffffffffffff1673ffffffffffffffffffffffffffffffffffffffff166323b872dd3330866040518463ffffffff1660e01b815260040161332c93929190613b67565b602060405180830381600087803b15801561334657600080fd5b505af115801561335a573d6000803e3d6000fd5b505050506040513d601f19601f8201168201806040525081019061337e919061386a565b5082600360003373ffffffffffffffffffffffffffffffffffffffff1673ffffffffffffffffffffffffffffffffffffffff168152602001908152602001600020836040516133cd9190613b20565b908152602001604051809103902060008282546133ea9190613da0565b925050819055506001905092915050565b6134036135a4565b73ffffffffffffffffffffffffffffffffffffffff16613421612ce7565b73ffffffffffffffffffffffffffffffffffffffff1614613477576040517f08c379a000000000000000000000000000000000000000000000000000000000815260040161346e90613c54565b60405180910390fd5b600073ffffffffffffffffffffffffffffffffffffffff168173ffffffffffffffffffffffffffffffffffffffff1614156134e7576040517f08c379a00000000000000000000000000000000000000000000000000000000081526004016134de90613c34565b60405180910390fd5b8073ffffffffffffffffffffffffffffffffffffffff1660008054906101000a900473ffffffffffffffffffffffffffffffffffffffff1673ffffffffffffffffffffffffffffffffffffffff167f8be0079c531659141344cd1fd0a4f28419497f9722a3daafe3b4186f6b6457e060405160405180910390a3806000806101000a81548173ffffffffffffffffffffffffffffffffffffffff021916908373ffffffffffffffffffffffffffffffffffffffff16021790555050565b600033905090565b8280546135b890613fac565b90600052602060002090601f0160209004810192826135da5760008555613628565b82601f106135eb5780548555613628565b8280016001018555821561362857600052602060002091601f016020900482015b8281111561362757825482559160010191906001019061360c565b5b50905061363591906136ff565b5090565b50805461364590613fac565b6000825580601f106136575750613676565b601f01602090049060005260206000209081019061367591906136ff565b5b50565b82805461368590613fac565b90600052602060002090601f0160209004810192826136a757600085556136ee565b82601f106136c057805160ff19168380011785556136ee565b828001600101855582156136ee579182015b828111156136ed5782518255916020019190600101906136d2565b5b5090506136fb91906136ff565b5090565b5b80821115613718576000816000905550600101613700565b5090565b600061372f61372a84613cb4565b613c8f565b90508281526020810184848401111561374757600080fd5b613752848285613f6a565b509392505050565b60008135905061376981614197565b92915050565b60008151905061377e816141ae565b92915050565b600081359050613793816141c5565b92915050565b6000813590506137a8816141d5565b92915050565b600082601f8301126137bf57600080fd5b81356137cf84826020860161371c565b91505092915050565b6000813590506137e7816141ec565b92915050565b6000602082840312156137ff57600080fd5b600061380d8482850161375a565b91505092915050565b6000806040838503121561382957600080fd5b60006138378582860161375a565b925050602083013567ffffffffffffffff81111561385457600080fd5b613860858286016137ae565b9150509250929050565b60006020828403121561387c57600080fd5b600061388a8482850161376f565b91505092915050565b600080600080608085870312156138a957600080fd5b60006138b787828801613784565b945050602085013567ffffffffffffffff8111156138d457600080fd5b6138e0878288016137ae565b93505060406138f187828801613799565b925050606061390287828801613799565b91505092959194509250565b60006020828403121561392057600080fd5b600082013567ffffffffffffffff81111561393a57600080fd5b613946848285016137ae565b91505092915050565b6000806040838503121561396257600080fd5b600083013567ffffffffffffffff81111561397c57600080fd5b613988858286016137ae565b92505060206139998582860161375a565b9150509250929050565b6000602082840312156139b557600080fd5b60006139c3848285016137d8565b91505092915050565b600080604083850312156139df57600080fd5b60006139ed858286016137d8565b925050602083013567ffffffffffffffff811115613a0a57600080fd5b613a16858286016137ae565b9150509250929050565b613a2981613f18565b82525050565b613a3881613f2a565b82525050565b6000613a4982613ce5565b613a538185613cf0565b9350613a63818560208601613f79565b613a6c816140e5565b840191505092915050565b6000613a8282613ce5565b613a8c8185613d01565b9350613a9c818560208601613f79565b80840191505092915050565b6000613ab5602683613cf0565b9150613ac0826140f6565b604082019050919050565b6000613ad8602083613cf0565b9150613ae382614145565b602082019050919050565b6000613afb600383613d01565b9150613b068261416e565b600382019050919050565b613b1a81613f60565b82525050565b6000613b2c8284613a77565b915081905092915050565b6000613b4282613aee565b9150819050919050565b6000602082019050613b616000830184613a20565b92915050565b6000606082019050613b7c6000830186613a20565b613b896020830185613a20565b613b966040830184613b11565b949350505050565b6000604082019050613bb36000830185613a20565b613bc06020830184613b11565b9392505050565b6000602082019050613bdc6000830184613a2f565b92915050565b60006020820190508181036000830152613bfc8184613a3e565b905092915050565b60006040820190508181036000830152613c1e8185613a3e565b9050613c2d6020830184613a20565b9392505050565b60006020820190508181036000830152613c4d81613aa8565b9050919050565b60006020820190508181036000830152613c6d81613acb565b9050919050565b6000602082019050613c896000830184613b11565b92915050565b6000613c99613caa565b9050613ca58282613fde565b919050565b6000604051905090565b600067ffffffffffffffff821115613ccf57613cce6140b6565b5b613cd8826140e5565b9050602081019050919050565b600081519050919050565b600082825260208201905092915050565b600081905092915050565b6000613d1782613f36565b9150613d2283613f36565b9250817f7fffffffffffffffffffffffffffffffffffffffffffffffffffffffffffffff03831360008312151615613d5d57613d5c614058565b5b817f8000000000000000000000000000000000000000000000000000000000000000038312600083121615613d9557613d94614058565b5b828201905092915050565b6000613dab82613f60565b9150613db683613f60565b9250827fffffffffffffffffffffffffffffffffffffffffffffffffffffffffffffffff03821115613deb57613dea614058565b5b828201905092915050565b6000613e0182613f60565b9150613e0c83613f60565b9250817fffffffffffffffffffffffffffffffffffffffffffffffffffffffffffffffff0483118215151615613e4557613e44614058565b5b828202905092915050565b6000613e5b82613f36565b9150613e6683613f36565b9250827f800000000000000000000000000000000000000000000000000000000000000001821260008412151615613ea157613ea0614058565b5b827f7fffffffffffffffffffffffffffffffffffffffffffffffffffffffffffffff018213600084121615613ed957613ed8614058565b5b828203905092915050565b6000613eef82613f60565b9150613efa83613f60565b925082821015613f0d57613f0c614058565b5b828203905092915050565b6000613f2382613f40565b9050919050565b60008115159050919050565b6000819050919050565b600073ffffffffffffffffffffffffffffffffffffffff82169050919050565b6000819050919050565b82818337600083830152505050565b60005b83811015613f97578082015181840152602081019050613f7c565b83811115613fa6576000848401525b50505050565b60006002820490506001821680613fc457607f821691505b60208210811415613fd857613fd7614087565b5b50919050565b613fe7826140e5565b810181811067ffffffffffffffff82111715614006576140056140b6565b5b80604052505050565b600061401a82613f36565b91507f7fffffffffffffffffffffffffffffffffffffffffffffffffffffffffffffff82141561404d5761404c614058565b5b600182019050919050565b7f4e487b7100000000000000000000000000000000000000000000000000000000600052601160045260246000fd5b7f4e487b7100000000000000000000000000000000000000000000000000000000600052602260045260246000fd5b7f4e487b7100000000000000000000000000000000000000000000000000000000600052604160045260246000fd5b6000601f19601f8301169050919050565b7f4f776e61626c653a206e6577206f776e657220697320746865207a65726f206160008201527f6464726573730000000000000000000000000000000000000000000000000000602082015250565b7f4f776e61626c653a2063616c6c6572206973206e6f7420746865206f776e6572600082015250565b7f4554480000000000000000000000000000000000000000000000000000000000600082015250565b6141a081613f18565b81146141ab57600080fd5b50565b6141b781613f2a565b81146141c257600080fd5b50565b600281106141d257600080fd5b50565b6141de81613f36565b81146141e957600080fd5b50565b6141f581613f60565b811461420057600080fd5b5056fea264697066735822122077f8adf2841b0fda132f96096a15e17ca0f5309702008428080e44fa4808989d64736f6c63430008040033",
  "immutableReferences": {},
  "source": "// SPDX-License-Identifier: MIT\r\npragma solidity >=0.4.22 <0.9.0;\r\npragma experimental ABIEncoderV2;\r\n\r\nimport \"./wallet.sol\";\r\nimport \"../node_modules/@openzeppelin//contracts/access/Ownable.sol\";\r\n\r\nimport \"../node_modules/@openzeppelin//contracts/access/Ownable.sol\";\r\n\r\n//for market order add in the order and resolve straight away. If the orderbook is empty\r\n//create resolveMarketOrderFunc which when called looops through orer book and settles\r\n//market orders \r\n\r\ncontract Alg is Wallet {\r\n\r\n    uint private id = 0;\r\n    enum Side {\r\n        BUY,\r\n        SELL\r\n    }\r\n\r\n\r\n    struct Order {\r\n\r\n        address trader;\r\n        string ticker;\r\n        uint256 amount;\r\n        Side side;\r\n        uint id;\r\n        uint price;\r\n        bool filled;\r\n    }\r\n\r\n    \r\n    mapping(string => uint) order_id;\r\n\r\n    //need double mapping to map a token to a buy/sell LimitOrderBook[ticker][uint(side)]\r\n    mapping(string => mapping(uint => Order[])) LimitOrderBook;\r\n    mapping(string => mapping(uint => Order[])) MarketOrderBook;\r\n\r\n    function settleOrders(string memory ticker) public  {\r\n\r\n      Order[] storage LimitOrder = LimitOrderBook[ticker][uint(Side.BUY)];\r\n      Order[] storage newOrder = LimitOrderBook[ticker][uint(Side.SELL)];\r\n      uint i = 0;\r\n      uint cost = 0;\r\n      uint fillAmount;\r\n      while (newOrder.length > 0) {\r\n            \r\n            //handle case when limit order book is empty\r\n            if (LimitOrder.length == 0) {\r\n              break;\r\n            }\r\n            //handle case when market order amount == limit order amt\r\n            if (newOrder[i].amount == LimitOrder[i].amount) {\r\n                fillAmount = 0;\r\n                fillAmount = newOrder[i].amount;\r\n                newOrder[i].amount -= newOrder[i].amount;\r\n                LimitOrder[i].amount -= LimitOrder[i].amount;\r\n                newOrder[i].filled = true;\r\n                LimitOrder[i].filled = true;\r\n              \r\n              }\r\n\r\n              //handle case when limit order < market order\r\n              else if (newOrder[i].amount > LimitOrder[i].amount) {\r\n                fillAmount = 0;\r\n                fillAmount = LimitOrder[i].amount;\r\n                newOrder[i].amount -= LimitOrder[i].amount;\r\n                LimitOrder[i].amount -= LimitOrder[i].amount;\r\n                LimitOrder[i].filled = true;\r\n              }\r\n\r\n              //handle case when limit order > market order\r\n              else if (newOrder[i].amount < LimitOrder[i].amount) {\r\n                fillAmount = 0;\r\n                fillAmount = newOrder[i].amount;\r\n                newOrder[i].amount -= newOrder[i].amount;\r\n                LimitOrder[i].amount -= newOrder[i].amount;\r\n                newOrder[i].filled = true;\r\n               \r\n              }\r\n\r\n              cost = fillAmount * LimitOrder[i].price;\r\n              //transfer funds and update balances\r\n              balances[msg.sender][ticker] += fillAmount;\r\n              balances[msg.sender][\"ETH\"] -= cost;\r\n\r\n              balances[newOrder[i].trader][ticker] -= fillAmount;\r\n              balances[newOrder[i].trader][\"ETH\"] += cost;\r\n\r\n              if (newOrder[i].filled) {\r\n                  newOrder[i] = newOrder[newOrder.length - 1];\r\n                  newOrder.pop();\r\n              }\r\n\r\n              if (LimitOrder[i].filled) {\r\n                LimitOrder[i] = LimitOrder[LimitOrder.length - 1];\r\n                LimitOrder.pop();\r\n                \r\n            }      \r\n\r\n\r\n          }\r\n          \r\n    }\r\n\r\n\r\n    function sortOrder(Side side, string memory ticker, int low, int high) public {\r\n     // side = Side.BUY;\r\n      if (side == Side.BUY) {\r\n\r\n        if (low < high) {\r\n          int pivot = int(LimitOrderBook[ticker][uint(side)][uint(high)].price);\r\n          int i = (low-1); // index of smaller element\r\n          for (int j = low; j < high; j++) {\r\n            if (int(LimitOrderBook[ticker][uint(side)][uint(j)].price) <= pivot) {\r\n              i++;\r\n              if (i != j) {\r\n                LimitOrderBook[ticker][uint(side)][uint(i)].price ^= LimitOrderBook[ticker][uint(side)][uint(j)].price;\r\n                LimitOrderBook[ticker][uint(side)][uint(j)].price ^= LimitOrderBook[ticker][uint(side)][uint(i)].price;\r\n                LimitOrderBook[ticker][uint(side)][uint(i)].price ^= LimitOrderBook[ticker][uint(side)][uint(j)].price;\r\n              }\r\n            }\r\n          }\r\n          if (i+1 != high) {\r\n            LimitOrderBook[ticker][uint(side)][uint(i+1)].price ^= LimitOrderBook[ticker][uint(side)][uint(high)].price;\r\n            LimitOrderBook[ticker][uint(side)][uint(high)].price ^= LimitOrderBook[ticker][uint(side)][uint(i+1)].price;\r\n            LimitOrderBook[ticker][uint(side)][uint(i+1)].price ^= LimitOrderBook[ticker][uint(side)][uint(high)].price;\r\n          }\r\n          pivot = i + 1;\r\n          sortOrder(side, ticker, low, pivot-1);\r\n          sortOrder(side, ticker, pivot+1, high);\r\n\r\n        }\r\n      } else {\r\n          if (low < high) {\r\n            int pivot = int(LimitOrderBook[ticker][uint(side)][uint(high)].price);\r\n            int i = (low-1); // index of smaller element\r\n            for (int j = low; j < high; j++) {\r\n              if (int(LimitOrderBook[ticker][uint(side)][uint(j)].price) >= pivot) {\r\n                i++;\r\n                if (i != j) {\r\n                  LimitOrderBook[ticker][uint(side)][uint(i)].price ^= LimitOrderBook[ticker][uint(side)][uint(j)].price;\r\n                  LimitOrderBook[ticker][uint(side)][uint(j)].price ^= LimitOrderBook[ticker][uint(side)][uint(i)].price;\r\n                  LimitOrderBook[ticker][uint(side)][uint(i)].price ^= LimitOrderBook[ticker][uint(side)][uint(j)].price;\r\n                }\r\n              }\r\n            }\r\n            if (i+1 != high) {\r\n              LimitOrderBook[ticker][uint(side)][uint(i+1)].price ^= LimitOrderBook[ticker][uint(side)][uint(high)].price;\r\n              LimitOrderBook[ticker][uint(side)][uint(high)].price ^= LimitOrderBook[ticker][uint(side)][uint(i+1)].price;\r\n              LimitOrderBook[ticker][uint(side)][uint(i+1)].price ^= LimitOrderBook[ticker][uint(side)][uint(high)].price;\r\n            }\r\n            pivot = i + 1;\r\n            sortOrder(side, ticker, low, pivot-1);\r\n            sortOrder(side, ticker, pivot+1, high);\r\n\r\n\r\n\r\n      }\r\n      \r\n      }\r\n    }\r\n\r\n}",
  "sourcePath": "C:\\Users\\evanm\\OneDrive\\Documents\\EthereumProgramming\\Solidity-201\\DexProject\\contracts\\dexAlgorithms.sol",
  "compiler": {
    "name": "solc",
    "version": "0.8.4+commit.c7e474f2.Emscripten.clang"
  },
  "schemaVersion": "3.3.4",
  "updatedAt": "2021-05-20T16:58:21.114Z",
  "devdoc": {
    "kind": "dev",
    "methods": {
      "owner()": {
        "details": "Returns the address of the current owner."
      },
      "renounceOwnership()": {
        "details": "Leaves the contract without owner. It will not be possible to call `onlyOwner` functions anymore. Can only be called by the current owner. NOTE: Renouncing ownership will leave the contract without an owner, thereby removing any functionality that is only available to the owner."
      },
      "transferOwnership(address)": {
        "details": "Transfers ownership of the contract to a new account (`newOwner`). Can only be called by the current owner."
      }
    },
    "version": 1
  },
  "userdoc": {
    "kind": "user",
    "methods": {},
    "version": 1
  }
}