{
  "contractName": "Dex",
  "abi": [
    {
      "anonymous": false,
      "inputs": [
        {
          "indexed": true,
          "internalType": "address",
          "name": "previousOwner",
          "type": "address"
        },
        {
          "indexed": true,
          "internalType": "address",
          "name": "newOwner",
          "type": "address"
        }
      ],
      "name": "OwnershipTransferred",
      "type": "event"
    },
    {
      "anonymous": false,
      "inputs": [
        {
          "indexed": false,
          "internalType": "address",
          "name": "depositedFrom",
          "type": "address"
        },
        {
          "indexed": false,
          "internalType": "address",
          "name": "depositedTo",
          "type": "address"
        },
        {
          "indexed": false,
          "internalType": "uint256",
          "name": "amount",
          "type": "uint256"
        },
        {
          "indexed": false,
          "internalType": "string",
          "name": "ticker",
          "type": "string"
        }
      ],
      "name": "deposited",
      "type": "event"
    },
    {
      "inputs": [
        {
          "internalType": "string",
          "name": "ticker",
          "type": "string"
        },
        {
          "internalType": "address",
          "name": "tokenAddress",
          "type": "address"
        }
      ],
      "name": "addToken",
      "outputs": [],
      "stateMutability": "nonpayable",
      "type": "function"
    },
    {
      "inputs": [
        {
          "internalType": "address",
          "name": "",
          "type": "address"
        },
        {
          "internalType": "string",
          "name": "",
          "type": "string"
        }
      ],
      "name": "balances",
      "outputs": [
        {
          "internalType": "uint256",
          "name": "",
          "type": "uint256"
        }
      ],
      "stateMutability": "view",
      "type": "function",
      "constant": true
    },
    {
      "inputs": [
        {
          "internalType": "uint256",
          "name": "amount",
          "type": "uint256"
        },
        {
          "internalType": "string",
          "name": "ticker",
          "type": "string"
        }
      ],
      "name": "deposit",
      "outputs": [
        {
          "internalType": "bool",
          "name": "_success",
          "type": "bool"
        }
      ],
      "stateMutability": "nonpayable",
      "type": "function"
    },
    {
      "inputs": [
        {
          "internalType": "address",
          "name": "tokenHolder",
          "type": "address"
        },
        {
          "internalType": "string",
          "name": "ticker",
          "type": "string"
        }
      ],
      "name": "getBalance",
      "outputs": [
        {
          "internalType": "uint256",
          "name": "",
          "type": "uint256"
        }
      ],
      "stateMutability": "view",
      "type": "function",
      "constant": true
    },
    {
      "inputs": [],
      "name": "getOwner",
      "outputs": [
        {
          "internalType": "address",
          "name": "",
          "type": "address"
        }
      ],
      "stateMutability": "view",
      "type": "function",
      "constant": true
    },
    {
      "inputs": [],
      "name": "owner",
      "outputs": [
        {
          "internalType": "address",
          "name": "",
          "type": "address"
        }
      ],
      "stateMutability": "view",
      "type": "function",
      "constant": true
    },
    {
      "inputs": [],
      "name": "renounceOwnership",
      "outputs": [],
      "stateMutability": "nonpayable",
      "type": "function"
    },
    {
      "inputs": [
        {
          "internalType": "uint256",
          "name": "",
          "type": "uint256"
        }
      ],
      "name": "tokenList",
      "outputs": [
        {
          "internalType": "string",
          "name": "",
          "type": "string"
        }
      ],
      "stateMutability": "view",
      "type": "function",
      "constant": true
    },
    {
      "inputs": [
        {
          "internalType": "string",
          "name": "",
          "type": "string"
        }
      ],
      "name": "tokenMapping",
      "outputs": [
        {
          "internalType": "string",
          "name": "ticker",
          "type": "string"
        },
        {
          "internalType": "address",
          "name": "tokenAddress",
          "type": "address"
        }
      ],
      "stateMutability": "view",
      "type": "function",
      "constant": true
    },
    {
      "inputs": [
        {
          "internalType": "address",
          "name": "newOwner",
          "type": "address"
        }
      ],
      "name": "transferOwnership",
      "outputs": [],
      "stateMutability": "nonpayable",
      "type": "function"
    },
    {
      "inputs": [
        {
          "internalType": "uint256",
          "name": "amount",
          "type": "uint256"
        },
        {
          "internalType": "string",
          "name": "ticker",
          "type": "string"
        }
      ],
      "name": "withdraw",
      "outputs": [],
      "stateMutability": "nonpayable",
      "type": "function"
    },
    {
      "inputs": [
        {
          "internalType": "enum Dex.Side",
          "name": "side",
          "type": "uint8"
        },
        {
          "internalType": "string",
          "name": "ticker",
          "type": "string"
        }
      ],
      "name": "getOrders",
      "outputs": [
        {
          "components": [
            {
              "internalType": "address",
              "name": "trader",
              "type": "address"
            },
            {
              "internalType": "string",
              "name": "ticker",
              "type": "string"
            },
            {
              "internalType": "uint256",
              "name": "amount",
              "type": "uint256"
            },
            {
              "internalType": "enum Dex.Side",
              "name": "side",
              "type": "uint8"
            },
            {
              "internalType": "uint256",
              "name": "id",
              "type": "uint256"
            },
            {
              "internalType": "uint256",
              "name": "price",
              "type": "uint256"
            },
            {
              "internalType": "bool",
              "name": "filled",
              "type": "bool"
            }
          ],
          "internalType": "struct Dex.Order[]",
          "name": "",
          "type": "tuple[]"
        }
      ],
      "stateMutability": "view",
      "type": "function",
      "constant": true
    },
    {
      "inputs": [
        {
          "internalType": "enum Dex.Side",
          "name": "side",
          "type": "uint8"
        },
        {
          "internalType": "string",
          "name": "ticker",
          "type": "string"
        },
        {
          "internalType": "uint256",
          "name": "amount",
          "type": "uint256"
        },
        {
          "internalType": "uint256",
          "name": "price",
          "type": "uint256"
        }
      ],
      "name": "createLimitOrder",
      "outputs": [],
      "stateMutability": "nonpayable",
      "type": "function"
    },
    {
      "inputs": [
        {
          "internalType": "enum Dex.Side",
          "name": "side",
          "type": "uint8"
        },
        {
          "internalType": "string",
          "name": "ticker",
          "type": "string"
        },
        {
          "internalType": "uint256",
          "name": "amount",
          "type": "uint256"
        },
        {
          "internalType": "uint256",
          "name": "price",
          "type": "uint256"
        }
      ],
      "name": "createMarketOrder",
      "outputs": [],
      "stateMutability": "nonpayable",
      "type": "function"
    },
    {
      "inputs": [
        {
          "internalType": "enum Dex.Side",
          "name": "side",
          "type": "uint8"
        },
        {
          "internalType": "string",
          "name": "ticker",
          "type": "string"
        },
        {
          "internalType": "int256",
          "name": "low",
          "type": "int256"
        },
        {
          "internalType": "int256",
          "name": "high",
          "type": "int256"
        }
      ],
      "name": "sortOrder",
      "outputs": [],
      "stateMutability": "nonpayable",
      "type": "function"
    }
  ],
  "bytecode": "0x6080604052600060045560006005553480156200001b57600080fd5b5060006200002e620000d260201b60201c565b9050806000806101000a81548173ffffffffffffffffffffffffffffffffffffffff021916908373ffffffffffffffffffffffffffffffffffffffff1602179055508073ffffffffffffffffffffffffffffffffffffffff16600073ffffffffffffffffffffffffffffffffffffffff167f8be0079c531659141344cd1fd0a4f28419497f9722a3daafe3b4186f6b6457e060405160405180910390a350620000da565b600033905090565b615c9e80620000ea6000396000f3fe608060405234801561001057600080fd5b50600436106100f55760003560e01c80638da5cb5b11610097578063dc048cf211610066578063dc048cf214610270578063e88ad9531461028c578063f1215d25146102bd578063f2fde38b146102ed576100f5565b80638da5cb5b146101d65780639ead7222146101f4578063b0b22c2c14610224578063c297d33e14610240576100f5565b80633fa6b1c0116100d35780633fa6b1c0146101765780635628412514610192578063715018a6146101ae578063893d20e8146101b8576100f5565b806305d01f50146100fa5780631dd7cecf1461012a5780633963b02e1461015a575b600080fd5b610114600480360381019061010f9190614ef5565b610309565b60405161012191906155de565b60405180910390f35b610144600480360381019061013f9190614ef5565b610344565b60405161015191906155de565b60405180910390f35b610174600480360381019061016f9190615041565b6103aa565b005b610190600480360381019061018b9190614fc6565b610ab9565b005b6101ac60048036038101906101a79190615041565b6120d6565b005b6101b6612706565b005b6101c0612840565b6040516101cd9190615494565b60405180910390f35b6101de612848565b6040516101eb9190615494565b60405180910390f35b61020e60048036038101906102099190615151565b612871565b60405161021b919061554c565b60405180910390f35b61023e600480360381019061023991906150fd565b61291d565b005b61025a60048036038101906102559190614f72565b612a89565b604051610267919061550f565b60405180910390f35b61028a6004803603810190610285919061517a565b612cf8565b005b6102a660048036038101906102a191906150bc565b612f20565b6040516102b492919061556e565b60405180910390f35b6102d760048036038101906102d2919061517a565b613002565b6040516102e49190615531565b60405180910390f35b61030760048036038101906103029190614ecc565b6131cb565b005b600360205281600052604060002081805160208101820180518482526020830160208501208183528095505050505050600091509150505481565b6000600360008473ffffffffffffffffffffffffffffffffffffffff1673ffffffffffffffffffffffffffffffffffffffff168152602001908152602001600020826040516103939190615468565b908152602001604051809103902054905092915050565b600060018111156103e4577f4e487b7100000000000000000000000000000000000000000000000000000000600052602160045260246000fd5b84600181111561041d577f4e487b7100000000000000000000000000000000000000000000000000000000600052602160045260246000fd5b141561076c57808261042f91906157aa565b600360003373ffffffffffffffffffffffffffffffffffffffff1673ffffffffffffffffffffffffffffffffffffffff16815260200190815260200160002060405161047a9061547f565b908152602001604051809103902054101561049457600080fd5b81600360003373ffffffffffffffffffffffffffffffffffffffff1673ffffffffffffffffffffffffffffffffffffffff168152602001908152602001600020846040516104e29190615468565b90815260200160405180910390205410156104fc57600080fd5b600060088460405161050e9190615468565b90815260200160405180910390206000866001811115610557577f4e487b7100000000000000000000000000000000000000000000000000000000600052602160045260246000fd5b815260200190815260200160002090508080549050600681905550806040518060e001604052803373ffffffffffffffffffffffffffffffffffffffff1681526020018681526020018581526020018760018111156105df577f4e487b7100000000000000000000000000000000000000000000000000000000600052602160045260246000fd5b8152602001600454815260200184815260200160001515815250908060018154018082558091505060019003906000526020600020906007020160009091909190915060008201518160000160006101000a81548173ffffffffffffffffffffffffffffffffffffffff021916908373ffffffffffffffffffffffffffffffffffffffff1602179055506020820151816001019080519060200190610685929190614c8b565b506040820151816002015560608201518160030160006101000a81548160ff021916908360018111156106e1577f4e487b7100000000000000000000000000000000000000000000000000000000600052602160045260246000fd5b02179055506080820151816004015560a0820151816005015560c08201518160060160006101000a81548160ff021916908315150217905550505061072c8585600554600654610ab9565b6107368486613374565b6004600081548092919061074990615a31565b919050555060066000815480929190610761906159e8565b919050555050610ab3565b808261077891906157aa565b600360003373ffffffffffffffffffffffffffffffffffffffff1673ffffffffffffffffffffffffffffffffffffffff168152602001908152602001600020846040516107c59190615468565b90815260200160405180910390205410156107df57600080fd5b81600360003373ffffffffffffffffffffffffffffffffffffffff1673ffffffffffffffffffffffffffffffffffffffff1681526020019081526020016000208460405161082d9190615468565b908152602001604051809103902054101561084757600080fd5b60006008846040516108599190615468565b908152602001604051809103902060008660018111156108a2577f4e487b7100000000000000000000000000000000000000000000000000000000600052602160045260246000fd5b815260200190815260200160002090508080549050600781905550806040518060e001604052803373ffffffffffffffffffffffffffffffffffffffff16815260200186815260200185815260200187600181111561092a577f4e487b7100000000000000000000000000000000000000000000000000000000600052602160045260246000fd5b8152602001600454815260200184815260200160001515815250908060018154018082558091505060019003906000526020600020906007020160009091909190915060008201518160000160006101000a81548173ffffffffffffffffffffffffffffffffffffffff021916908373ffffffffffffffffffffffffffffffffffffffff16021790555060208201518160010190805190602001906109d0929190614c8b565b506040820151816002015560608201518160030160006101000a81548160ff02191690836001811115610a2c577f4e487b7100000000000000000000000000000000000000000000000000000000600052602160045260246000fd5b02179055506080820151816004015560a0820151816005015560c08201518160060160006101000a81548160ff0219169083151502179055505050610a778585600554600754610ab9565b610a818486613374565b60046000815480929190610a9490615a31565b919050555060076000815480929190610aac906159e8565b9190505550505b50505050565b60006001811115610af3577f4e487b7100000000000000000000000000000000000000000000000000000000600052602160045260246000fd5b846001811115610b2c577f4e487b7100000000000000000000000000000000000000000000000000000000600052602160045260246000fd5b141561160357808212156115fe576000600884604051610b4c9190615468565b90815260200160405180910390206000866001811115610b95577f4e487b7100000000000000000000000000000000000000000000000000000000600052602160045260246000fd5b81526020019081526020016000208281548110610bdb577f4e487b7100000000000000000000000000000000000000000000000000000000600052603260045260246000fd5b90600052602060002090600702016005015490506000600184610bfe9190615804565b905060008490505b838112156111395782600887604051610c1f9190615468565b90815260200160405180910390206000896001811115610c68577f4e487b7100000000000000000000000000000000000000000000000000000000600052602160045260246000fd5b81526020019081526020016000208281548110610cae577f4e487b7100000000000000000000000000000000000000000000000000000000600052603260045260246000fd5b90600052602060002090600702016005015413611126578180610cd0906159e8565b92505080821461112557600886604051610cea9190615468565b90815260200160405180910390206000886001811115610d33577f4e487b7100000000000000000000000000000000000000000000000000000000600052602160045260246000fd5b81526020019081526020016000208181548110610d79577f4e487b7100000000000000000000000000000000000000000000000000000000600052603260045260246000fd5b906000526020600020906007020160050154600887604051610d9b9190615468565b90815260200160405180910390206000896001811115610de4577f4e487b7100000000000000000000000000000000000000000000000000000000600052602160045260246000fd5b81526020019081526020016000208381548110610e2a577f4e487b7100000000000000000000000000000000000000000000000000000000600052603260045260246000fd5b906000526020600020906007020160050160008282541892505081905550600886604051610e589190615468565b90815260200160405180910390206000886001811115610ea1577f4e487b7100000000000000000000000000000000000000000000000000000000600052602160045260246000fd5b81526020019081526020016000208281548110610ee7577f4e487b7100000000000000000000000000000000000000000000000000000000600052603260045260246000fd5b906000526020600020906007020160050154600887604051610f099190615468565b90815260200160405180910390206000896001811115610f52577f4e487b7100000000000000000000000000000000000000000000000000000000600052602160045260246000fd5b81526020019081526020016000208281548110610f98577f4e487b7100000000000000000000000000000000000000000000000000000000600052603260045260246000fd5b906000526020600020906007020160050160008282541892505081905550600886604051610fc69190615468565b9081526020016040518091039020600088600181111561100f577f4e487b7100000000000000000000000000000000000000000000000000000000600052602160045260246000fd5b81526020019081526020016000208181548110611055577f4e487b7100000000000000000000000000000000000000000000000000000000600052603260045260246000fd5b9060005260206000209060070201600501546008876040516110779190615468565b908152602001604051809103902060008960018111156110c0577f4e487b7100000000000000000000000000000000000000000000000000000000600052602160045260246000fd5b81526020019081526020016000208381548110611106577f4e487b7100000000000000000000000000000000000000000000000000000000600052603260045260246000fd5b9060005260206000209060070201600501600082825418925050819055505b5b8080611131906159e8565b915050610c06565b508260018261114891906156c0565b146115bc5760088560405161115d9190615468565b908152602001604051809103902060008760018111156111a6577f4e487b7100000000000000000000000000000000000000000000000000000000600052602160045260246000fd5b815260200190815260200160002083815481106111ec577f4e487b7100000000000000000000000000000000000000000000000000000000600052603260045260246000fd5b90600052602060002090600702016005015460088660405161120e9190615468565b90815260200160405180910390206000886001811115611257577f4e487b7100000000000000000000000000000000000000000000000000000000600052602160045260246000fd5b815260200190815260200160002060018361127291906156c0565b815481106112a9577f4e487b7100000000000000000000000000000000000000000000000000000000600052603260045260246000fd5b9060005260206000209060070201600501600082825418925050819055506008856040516112d79190615468565b90815260200160405180910390206000876001811115611320577f4e487b7100000000000000000000000000000000000000000000000000000000600052602160045260246000fd5b815260200190815260200160002060018261133b91906156c0565b81548110611372577f4e487b7100000000000000000000000000000000000000000000000000000000600052603260045260246000fd5b9060005260206000209060070201600501546008866040516113949190615468565b908152602001604051809103902060008860018111156113dd577f4e487b7100000000000000000000000000000000000000000000000000000000600052602160045260246000fd5b81526020019081526020016000208481548110611423577f4e487b7100000000000000000000000000000000000000000000000000000000600052603260045260246000fd5b9060005260206000209060070201600501600082825418925050819055506008856040516114519190615468565b9081526020016040518091039020600087600181111561149a577f4e487b7100000000000000000000000000000000000000000000000000000000600052602160045260246000fd5b815260200190815260200160002083815481106114e0577f4e487b7100000000000000000000000000000000000000000000000000000000600052603260045260246000fd5b9060005260206000209060070201600501546008866040516115029190615468565b9081526020016040518091039020600088600181111561154b577f4e487b7100000000000000000000000000000000000000000000000000000000600052602160045260246000fd5b815260200190815260200160002060018361156691906156c0565b8154811061159d577f4e487b7100000000000000000000000000000000000000000000000000000000600052603260045260246000fd5b9060005260206000209060070201600501600082825418925050819055505b6001816115c991906156c0565b91506115e38686866001866115de9190615804565b610ab9565b6115fb86866001856115f591906156c0565b86610ab9565b50505b6120d0565b808212156120cf57600060088460405161161d9190615468565b90815260200160405180910390206000866001811115611666577f4e487b7100000000000000000000000000000000000000000000000000000000600052602160045260246000fd5b815260200190815260200160002082815481106116ac577f4e487b7100000000000000000000000000000000000000000000000000000000600052603260045260246000fd5b906000526020600020906007020160050154905060006001846116cf9190615804565b905060008490505b83811215611c0a57826008876040516116f09190615468565b90815260200160405180910390206000896001811115611739577f4e487b7100000000000000000000000000000000000000000000000000000000600052602160045260246000fd5b8152602001908152602001600020828154811061177f577f4e487b7100000000000000000000000000000000000000000000000000000000600052603260045260246000fd5b90600052602060002090600702016005015412611bf75781806117a1906159e8565b925050808214611bf6576008866040516117bb9190615468565b90815260200160405180910390206000886001811115611804577f4e487b7100000000000000000000000000000000000000000000000000000000600052602160045260246000fd5b8152602001908152602001600020818154811061184a577f4e487b7100000000000000000000000000000000000000000000000000000000600052603260045260246000fd5b90600052602060002090600702016005015460088760405161186c9190615468565b908152602001604051809103902060008960018111156118b5577f4e487b7100000000000000000000000000000000000000000000000000000000600052602160045260246000fd5b815260200190815260200160002083815481106118fb577f4e487b7100000000000000000000000000000000000000000000000000000000600052603260045260246000fd5b9060005260206000209060070201600501600082825418925050819055506008866040516119299190615468565b90815260200160405180910390206000886001811115611972577f4e487b7100000000000000000000000000000000000000000000000000000000600052602160045260246000fd5b815260200190815260200160002082815481106119b8577f4e487b7100000000000000000000000000000000000000000000000000000000600052603260045260246000fd5b9060005260206000209060070201600501546008876040516119da9190615468565b90815260200160405180910390206000896001811115611a23577f4e487b7100000000000000000000000000000000000000000000000000000000600052602160045260246000fd5b81526020019081526020016000208281548110611a69577f4e487b7100000000000000000000000000000000000000000000000000000000600052603260045260246000fd5b906000526020600020906007020160050160008282541892505081905550600886604051611a979190615468565b90815260200160405180910390206000886001811115611ae0577f4e487b7100000000000000000000000000000000000000000000000000000000600052602160045260246000fd5b81526020019081526020016000208181548110611b26577f4e487b7100000000000000000000000000000000000000000000000000000000600052603260045260246000fd5b906000526020600020906007020160050154600887604051611b489190615468565b90815260200160405180910390206000896001811115611b91577f4e487b7100000000000000000000000000000000000000000000000000000000600052602160045260246000fd5b81526020019081526020016000208381548110611bd7577f4e487b7100000000000000000000000000000000000000000000000000000000600052603260045260246000fd5b9060005260206000209060070201600501600082825418925050819055505b5b8080611c02906159e8565b9150506116d7565b5082600182611c1991906156c0565b1461208d57600885604051611c2e9190615468565b90815260200160405180910390206000876001811115611c77577f4e487b7100000000000000000000000000000000000000000000000000000000600052602160045260246000fd5b81526020019081526020016000208381548110611cbd577f4e487b7100000000000000000000000000000000000000000000000000000000600052603260045260246000fd5b906000526020600020906007020160050154600886604051611cdf9190615468565b90815260200160405180910390206000886001811115611d28577f4e487b7100000000000000000000000000000000000000000000000000000000600052602160045260246000fd5b8152602001908152602001600020600183611d4391906156c0565b81548110611d7a577f4e487b7100000000000000000000000000000000000000000000000000000000600052603260045260246000fd5b906000526020600020906007020160050160008282541892505081905550600885604051611da89190615468565b90815260200160405180910390206000876001811115611df1577f4e487b7100000000000000000000000000000000000000000000000000000000600052602160045260246000fd5b8152602001908152602001600020600182611e0c91906156c0565b81548110611e43577f4e487b7100000000000000000000000000000000000000000000000000000000600052603260045260246000fd5b906000526020600020906007020160050154600886604051611e659190615468565b90815260200160405180910390206000886001811115611eae577f4e487b7100000000000000000000000000000000000000000000000000000000600052602160045260246000fd5b81526020019081526020016000208481548110611ef4577f4e487b7100000000000000000000000000000000000000000000000000000000600052603260045260246000fd5b906000526020600020906007020160050160008282541892505081905550600885604051611f229190615468565b90815260200160405180910390206000876001811115611f6b577f4e487b7100000000000000000000000000000000000000000000000000000000600052602160045260246000fd5b81526020019081526020016000208381548110611fb1577f4e487b7100000000000000000000000000000000000000000000000000000000600052603260045260246000fd5b906000526020600020906007020160050154600886604051611fd39190615468565b9081526020016040518091039020600088600181111561201c577f4e487b7100000000000000000000000000000000000000000000000000000000600052602160045260246000fd5b815260200190815260200160002060018361203791906156c0565b8154811061206e577f4e487b7100000000000000000000000000000000000000000000000000000000600052603260045260246000fd5b9060005260206000209060070201600501600082825418925050819055505b60018161209a91906156c0565b91506120b48686866001866120af9190615804565b610ab9565b6120cc86866001856120c691906156c0565b86610ab9565b50505b5b50505050565b60006001811115612110577f4e487b7100000000000000000000000000000000000000000000000000000000600052602160045260246000fd5b846001811115612149577f4e487b7100000000000000000000000000000000000000000000000000000000600052602160045260246000fd5b1415612158576001935061215d565b600093505b60006001811115612197577f4e487b7100000000000000000000000000000000000000000000000000000000600052602160045260246000fd5b8460018111156121d0577f4e487b7100000000000000000000000000000000000000000000000000000000600052602160045260246000fd5b141561246c5780826121e291906157aa565b600360003373ffffffffffffffffffffffffffffffffffffffff1673ffffffffffffffffffffffffffffffffffffffff16815260200190815260200160002060405161222d9061547f565b908152602001604051809103902054101561224757600080fd5b60006008846040516122599190615468565b908152602001604051809103902060008660018111156122a2577f4e487b7100000000000000000000000000000000000000000000000000000000600052602160045260246000fd5b81526020019081526020016000209050806040518060e001604052803373ffffffffffffffffffffffffffffffffffffffff16815260200186815260200185815260200187600181111561231f577f4e487b7100000000000000000000000000000000000000000000000000000000600052602160045260246000fd5b8152602001600454815260200184815260200160001515815250908060018154018082558091505060019003906000526020600020906007020160009091909190915060008201518160000160006101000a81548173ffffffffffffffffffffffffffffffffffffffff021916908373ffffffffffffffffffffffffffffffffffffffff16021790555060208201518160010190805190602001906123c5929190614c8b565b506040820151816002015560608201518160030160006101000a81548160ff02191690836001811115612421577f4e487b7100000000000000000000000000000000000000000000000000000000600052602160045260246000fd5b02179055506080820151816004015560a0820151816005015560c08201518160060160006101000a81548160ff02191690831515021790555050506124668486613374565b50612700565b808261247891906157aa565b600360003373ffffffffffffffffffffffffffffffffffffffff1673ffffffffffffffffffffffffffffffffffffffff168152602001908152602001600020846040516124c59190615468565b90815260200160405180910390205410156124df57600080fd5b60006008846040516124f19190615468565b9081526020016040518091039020600086600181111561253a577f4e487b7100000000000000000000000000000000000000000000000000000000600052602160045260246000fd5b81526020019081526020016000209050806040518060e001604052803373ffffffffffffffffffffffffffffffffffffffff1681526020018681526020018581526020018760018111156125b7577f4e487b7100000000000000000000000000000000000000000000000000000000600052602160045260246000fd5b8152602001600454815260200184815260200160001515815250908060018154018082558091505060019003906000526020600020906007020160009091909190915060008201518160000160006101000a81548173ffffffffffffffffffffffffffffffffffffffff021916908373ffffffffffffffffffffffffffffffffffffffff160217905550602082015181600101908051906020019061265d929190614c8b565b506040820151816002015560608201518160030160006101000a81548160ff021916908360018111156126b9577f4e487b7100000000000000000000000000000000000000000000000000000000600052602160045260246000fd5b02179055506080820151816004015560a0820151816005015560c08201518160060160006101000a81548160ff02191690831515021790555050506126fe8486613374565b505b50505050565b61270e614c83565b73ffffffffffffffffffffffffffffffffffffffff1661272c612848565b73ffffffffffffffffffffffffffffffffffffffff1614612782576040517f08c379a0000000000000000000000000000000000000000000000000000000008152600401612779906155be565b60405180910390fd5b600073ffffffffffffffffffffffffffffffffffffffff1660008054906101000a900473ffffffffffffffffffffffffffffffffffffffff1673ffffffffffffffffffffffffffffffffffffffff167f8be0079c531659141344cd1fd0a4f28419497f9722a3daafe3b4186f6b6457e060405160405180910390a360008060006101000a81548173ffffffffffffffffffffffffffffffffffffffff021916908373ffffffffffffffffffffffffffffffffffffffff160217905550565b600033905090565b60008060009054906101000a900473ffffffffffffffffffffffffffffffffffffffff16905090565b6002818154811061288157600080fd5b90600052602060002001600091509050805461289c90615985565b80601f01602080910402602001604051908101604052809291908181526020018280546128c890615985565b80156129155780601f106128ea57610100808354040283529160200191612915565b820191906000526020600020905b8154815290600101906020018083116128f857829003601f168201915b505050505081565b612925614c83565b73ffffffffffffffffffffffffffffffffffffffff16612943612848565b73ffffffffffffffffffffffffffffffffffffffff1614612999576040517f08c379a0000000000000000000000000000000000000000000000000000000008152600401612990906155be565b60405180910390fd5b60405180604001604052808381526020018273ffffffffffffffffffffffffffffffffffffffff168152506001836040516129d49190615468565b908152602001604051809103902060008201518160000190805190602001906129fe929190614c8b565b5060208201518160010160006101000a81548173ffffffffffffffffffffffffffffffffffffffff021916908373ffffffffffffffffffffffffffffffffffffffff160217905550905050600282908060018154018082558091505060019003906000526020600020016000909190919091509080519060200190612a84929190614c8b565b505050565b6060600882604051612a9b9190615468565b90815260200160405180910390206000846001811115612ae4577f4e487b7100000000000000000000000000000000000000000000000000000000600052602160045260246000fd5b8152602001908152602001600020805480602002602001604051908101604052809291908181526020016000905b82821015612cec57838290600052602060002090600702016040518060e00160405290816000820160009054906101000a900473ffffffffffffffffffffffffffffffffffffffff1673ffffffffffffffffffffffffffffffffffffffff1673ffffffffffffffffffffffffffffffffffffffff168152602001600182018054612b9b90615985565b80601f0160208091040260200160405190810160405280929190818152602001828054612bc790615985565b8015612c145780601f10612be957610100808354040283529160200191612c14565b820191906000526020600020905b815481529060010190602001808311612bf757829003601f168201915b50505050508152602001600282015481526020016003820160009054906101000a900460ff166001811115612c72577f4e487b7100000000000000000000000000000000000000000000000000000000600052602160045260246000fd5b6001811115612caa577f4e487b7100000000000000000000000000000000000000000000000000000000600052602160045260246000fd5b815260200160048201548152602001600582015481526020016006820160009054906101000a900460ff16151515158152505081526020019060010190612b12565b50505050905092915050565b600073ffffffffffffffffffffffffffffffffffffffff16600182604051612d209190615468565b908152602001604051809103902060010160009054906101000a900473ffffffffffffffffffffffffffffffffffffffff1673ffffffffffffffffffffffffffffffffffffffff161415612d7357600080fd5b81600360003373ffffffffffffffffffffffffffffffffffffffff1673ffffffffffffffffffffffffffffffffffffffff16815260200190815260200160002082604051612dc19190615468565b9081526020016040518091039020541015612ddb57600080fd5b81600360003373ffffffffffffffffffffffffffffffffffffffff1673ffffffffffffffffffffffffffffffffffffffff16815260200190815260200160002082604051612e299190615468565b90815260200160405180910390206000828254612e469190615754565b92505081905550600181604051612e5d9190615468565b908152602001604051809103902060010160009054906101000a900473ffffffffffffffffffffffffffffffffffffffff1673ffffffffffffffffffffffffffffffffffffffff1663a9059cbb33846040518363ffffffff1660e01b8152600401612ec99291906154e6565b602060405180830381600087803b158015612ee357600080fd5b505af1158015612ef7573d6000803e3d6000fd5b505050506040513d601f19601f82011682018060405250810190612f1b9190614f49565b505050565b600181805160208101820180518482526020830160208501208183528095505050505050600091509050806000018054612f5990615985565b80601f0160208091040260200160405190810160405280929190818152602001828054612f8590615985565b8015612fd25780601f10612fa757610100808354040283529160200191612fd2565b820191906000526020600020905b815481529060010190602001808311612fb557829003601f168201915b5050505050908060010160009054906101000a900473ffffffffffffffffffffffffffffffffffffffff16905082565b60008073ffffffffffffffffffffffffffffffffffffffff1660018360405161302b9190615468565b908152602001604051809103902060010160009054906101000a900473ffffffffffffffffffffffffffffffffffffffff1673ffffffffffffffffffffffffffffffffffffffff16141561307e57600080fd5b60018260405161308e9190615468565b908152602001604051809103902060010160009054906101000a900473ffffffffffffffffffffffffffffffffffffffff1673ffffffffffffffffffffffffffffffffffffffff166323b872dd3330866040518463ffffffff1660e01b81526004016130fc939291906154af565b602060405180830381600087803b15801561311657600080fd5b505af115801561312a573d6000803e3d6000fd5b505050506040513d601f19601f8201168201806040525081019061314e9190614f49565b5082600360003373ffffffffffffffffffffffffffffffffffffffff1673ffffffffffffffffffffffffffffffffffffffff1681526020019081526020016000208360405161319d9190615468565b908152602001604051809103902060008282546131ba9190615754565b925050819055506001905092915050565b6131d3614c83565b73ffffffffffffffffffffffffffffffffffffffff166131f1612848565b73ffffffffffffffffffffffffffffffffffffffff1614613247576040517f08c379a000000000000000000000000000000000000000000000000000000000815260040161323e906155be565b60405180910390fd5b600073ffffffffffffffffffffffffffffffffffffffff168173ffffffffffffffffffffffffffffffffffffffff1614156132b7576040517f08c379a00000000000000000000000000000000000000000000000000000000081526004016132ae9061559e565b60405180910390fd5b8073ffffffffffffffffffffffffffffffffffffffff1660008054906101000a900473ffffffffffffffffffffffffffffffffffffffff1673ffffffffffffffffffffffffffffffffffffffff167f8be0079c531659141344cd1fd0a4f28419497f9722a3daafe3b4186f6b6457e060405160405180910390a3806000806101000a81548173ffffffffffffffffffffffffffffffffffffffff021916908373ffffffffffffffffffffffffffffffffffffffff16021790555050565b600080600060018111156133b1577f4e487b7100000000000000000000000000000000000000000000000000000000600052602160045260246000fd5b8360018111156133ea577f4e487b7100000000000000000000000000000000000000000000000000000000600052602160045260246000fd5b14156134c7576008846040516134009190615468565b90815260200160405180910390206000600180811115613449577f4e487b7100000000000000000000000000000000000000000000000000000000600052602160045260246000fd5b815260200190815260200160002091506008846040516134699190615468565b908152602001604051809103902060008060018111156134b2577f4e487b7100000000000000000000000000000000000000000000000000000000600052602160045260246000fd5b8152602001908152602001600020905061359a565b6008846040516134d79190615468565b90815260200160405180910390206000806001811115613520577f4e487b7100000000000000000000000000000000000000000000000000000000600052602160045260246000fd5b815260200190815260200160002091506008846040516135409190615468565b90815260200160405180910390206000600180811115613589577f4e487b7100000000000000000000000000000000000000000000000000000000600052602160045260246000fd5b815260200190815260200160002090505b60008060005b600084805490501115614c7a576000858054905014156135bf57614c7a565b8483815481106135f8577f4e487b7100000000000000000000000000000000000000000000000000000000600052603260045260246000fd5b906000526020600020906007020160020154848481548110613643577f4e487b7100000000000000000000000000000000000000000000000000000000600052603260045260246000fd5b90600052602060002090600702016002015414156139255760009050838381548110613698577f4e487b7100000000000000000000000000000000000000000000000000000000600052603260045260246000fd5b90600052602060002090600702016002015490508383815481106136e5577f4e487b7100000000000000000000000000000000000000000000000000000000600052603260045260246000fd5b906000526020600020906007020160020154848481548110613730577f4e487b7100000000000000000000000000000000000000000000000000000000600052603260045260246000fd5b906000526020600020906007020160020160008282546137509190615898565b92505081905550848381548110613790577f4e487b7100000000000000000000000000000000000000000000000000000000600052603260045260246000fd5b9060005260206000209060070201600201548584815481106137db577f4e487b7100000000000000000000000000000000000000000000000000000000600052603260045260246000fd5b906000526020600020906007020160020160008282546137fb9190615898565b92505081905550600184848154811061383d577f4e487b7100000000000000000000000000000000000000000000000000000000600052603260045260246000fd5b906000526020600020906007020160060160006101000a81548160ff02191690831515021790555060018584815481106138a0577f4e487b7100000000000000000000000000000000000000000000000000000000600052603260045260246000fd5b906000526020600020906007020160060160006101000a81548160ff021916908315150217905550848381548110613901577f4e487b7100000000000000000000000000000000000000000000000000000000600052603260045260246000fd5b9060005260206000209060070201600501548161391e91906157aa565b9150613f29565b84838154811061395e577f4e487b7100000000000000000000000000000000000000000000000000000000600052603260045260246000fd5b9060005260206000209060070201600201548484815481106139a9577f4e487b7100000000000000000000000000000000000000000000000000000000600052603260045260246000fd5b9060005260206000209060070201600201541115613c2857600090508483815481106139fe577f4e487b7100000000000000000000000000000000000000000000000000000000600052603260045260246000fd5b9060005260206000209060070201600201549050848381548110613a4b577f4e487b7100000000000000000000000000000000000000000000000000000000600052603260045260246000fd5b906000526020600020906007020160020154848481548110613a96577f4e487b7100000000000000000000000000000000000000000000000000000000600052603260045260246000fd5b90600052602060002090600702016002016000828254613ab69190615898565b92505081905550848381548110613af6577f4e487b7100000000000000000000000000000000000000000000000000000000600052603260045260246000fd5b906000526020600020906007020160020154858481548110613b41577f4e487b7100000000000000000000000000000000000000000000000000000000600052603260045260246000fd5b90600052602060002090600702016002016000828254613b619190615898565b925050819055506001858481548110613ba3577f4e487b7100000000000000000000000000000000000000000000000000000000600052603260045260246000fd5b906000526020600020906007020160060160006101000a81548160ff021916908315150217905550848381548110613c04577f4e487b7100000000000000000000000000000000000000000000000000000000600052603260045260246000fd5b90600052602060002090600702016005015481613c2191906157aa565b9150613f28565b848381548110613c61577f4e487b7100000000000000000000000000000000000000000000000000000000600052603260045260246000fd5b906000526020600020906007020160020154848481548110613cac577f4e487b7100000000000000000000000000000000000000000000000000000000600052603260045260246000fd5b9060005260206000209060070201600201541015613f275760009050838381548110613d01577f4e487b7100000000000000000000000000000000000000000000000000000000600052603260045260246000fd5b9060005260206000209060070201600201549050838381548110613d4e577f4e487b7100000000000000000000000000000000000000000000000000000000600052603260045260246000fd5b906000526020600020906007020160020154848481548110613d99577f4e487b7100000000000000000000000000000000000000000000000000000000600052603260045260246000fd5b90600052602060002090600702016002016000828254613db99190615898565b92505081905550838381548110613df9577f4e487b7100000000000000000000000000000000000000000000000000000000600052603260045260246000fd5b906000526020600020906007020160020154858481548110613e44577f4e487b7100000000000000000000000000000000000000000000000000000000600052603260045260246000fd5b90600052602060002090600702016002016000828254613e649190615898565b925050819055506001848481548110613ea6577f4e487b7100000000000000000000000000000000000000000000000000000000600052603260045260246000fd5b906000526020600020906007020160060160006101000a81548160ff021916908315150217905550848381548110613f07577f4e487b7100000000000000000000000000000000000000000000000000000000600052603260045260246000fd5b90600052602060002090600702016005015481613f2491906157aa565b91505b5b5b600180811115613f62577f4e487b7100000000000000000000000000000000000000000000000000000000600052602160045260246000fd5b866001811115613f9b577f4e487b7100000000000000000000000000000000000000000000000000000000600052602160045260246000fd5b1415614312578060036000878681548110613fdf577f4e487b7100000000000000000000000000000000000000000000000000000000600052603260045260246000fd5b906000526020600020906007020160000160009054906101000a900473ffffffffffffffffffffffffffffffffffffffff1673ffffffffffffffffffffffffffffffffffffffff1673ffffffffffffffffffffffffffffffffffffffff168152602001908152602001600020886040516140599190615468565b908152602001604051809103902060008282546140769190615754565b9250508190555081600360008786815481106140bb577f4e487b7100000000000000000000000000000000000000000000000000000000600052603260045260246000fd5b906000526020600020906007020160000160009054906101000a900473ffffffffffffffffffffffffffffffffffffffff1673ffffffffffffffffffffffffffffffffffffffff1673ffffffffffffffffffffffffffffffffffffffff1681526020019081526020016000206040516141339061547f565b908152602001604051809103902060008282546141509190615898565b925050819055508060036000868681548110614195577f4e487b7100000000000000000000000000000000000000000000000000000000600052603260045260246000fd5b906000526020600020906007020160000160009054906101000a900473ffffffffffffffffffffffffffffffffffffffff1673ffffffffffffffffffffffffffffffffffffffff1673ffffffffffffffffffffffffffffffffffffffff1681526020019081526020016000208860405161420f9190615468565b9081526020016040518091039020600082825461422c9190615898565b925050819055508160036000868681548110614271577f4e487b7100000000000000000000000000000000000000000000000000000000600052603260045260246000fd5b906000526020600020906007020160000160009054906101000a900473ffffffffffffffffffffffffffffffffffffffff1673ffffffffffffffffffffffffffffffffffffffff1673ffffffffffffffffffffffffffffffffffffffff1681526020019081526020016000206040516142e99061547f565b908152602001604051809103902060008282546143069190615754565b9250508190555061467f565b8060036000878681548110614350577f4e487b7100000000000000000000000000000000000000000000000000000000600052603260045260246000fd5b906000526020600020906007020160000160009054906101000a900473ffffffffffffffffffffffffffffffffffffffff1673ffffffffffffffffffffffffffffffffffffffff1673ffffffffffffffffffffffffffffffffffffffff168152602001908152602001600020886040516143ca9190615468565b908152602001604051809103902060008282546143e79190615898565b92505081905550816003600087868154811061442c577f4e487b7100000000000000000000000000000000000000000000000000000000600052603260045260246000fd5b906000526020600020906007020160000160009054906101000a900473ffffffffffffffffffffffffffffffffffffffff1673ffffffffffffffffffffffffffffffffffffffff1673ffffffffffffffffffffffffffffffffffffffff1681526020019081526020016000206040516144a49061547f565b908152602001604051809103902060008282546144c19190615754565b925050819055508060036000868681548110614506577f4e487b7100000000000000000000000000000000000000000000000000000000600052603260045260246000fd5b906000526020600020906007020160000160009054906101000a900473ffffffffffffffffffffffffffffffffffffffff1673ffffffffffffffffffffffffffffffffffffffff1673ffffffffffffffffffffffffffffffffffffffff168152602001908152602001600020886040516145809190615468565b9081526020016040518091039020600082825461459d9190615754565b9250508190555081600360008686815481106145e2577f4e487b7100000000000000000000000000000000000000000000000000000000600052603260045260246000fd5b906000526020600020906007020160000160009054906101000a900473ffffffffffffffffffffffffffffffffffffffff1673ffffffffffffffffffffffffffffffffffffffff1673ffffffffffffffffffffffffffffffffffffffff16815260200190815260200160002060405161465a9061547f565b908152602001604051809103902060008282546146779190615898565b925050819055505b8383815481106146b8577f4e487b7100000000000000000000000000000000000000000000000000000000600052603260045260246000fd5b906000526020600020906007020160060160009054906101000a900460ff161561497a5783600185805490506146ee9190615898565b81548110614725577f4e487b7100000000000000000000000000000000000000000000000000000000600052603260045260246000fd5b906000526020600020906007020184848154811061476c577f4e487b7100000000000000000000000000000000000000000000000000000000600052603260045260246000fd5b90600052602060002090600702016000820160009054906101000a900473ffffffffffffffffffffffffffffffffffffffff168160000160006101000a81548173ffffffffffffffffffffffffffffffffffffffff021916908373ffffffffffffffffffffffffffffffffffffffff16021790555060018201816001019080546147f590615985565b614800929190614d11565b50600282015481600201556003820160009054906101000a900460ff168160030160006101000a81548160ff02191690836001811115614869577f4e487b7100000000000000000000000000000000000000000000000000000000600052602160045260246000fd5b021790555060048201548160040155600582015481600501556006820160009054906101000a900460ff168160060160006101000a81548160ff021916908315150217905550905050838054806148e9577f4e487b7100000000000000000000000000000000000000000000000000000000600052603160045260246000fd5b6001900381819060005260206000209060070201600080820160006101000a81549073ffffffffffffffffffffffffffffffffffffffff02191690556001820160006149359190614d9e565b60028201600090556003820160006101000a81549060ff0219169055600482016000905560058201600090556006820160006101000a81549060ff0219169055505090555b8483815481106149b3577f4e487b7100000000000000000000000000000000000000000000000000000000600052603260045260246000fd5b906000526020600020906007020160060160009054906101000a900460ff1615614c755784600186805490506149e99190615898565b81548110614a20577f4e487b7100000000000000000000000000000000000000000000000000000000600052603260045260246000fd5b9060005260206000209060070201858481548110614a67577f4e487b7100000000000000000000000000000000000000000000000000000000600052603260045260246000fd5b90600052602060002090600702016000820160009054906101000a900473ffffffffffffffffffffffffffffffffffffffff168160000160006101000a81548173ffffffffffffffffffffffffffffffffffffffff021916908373ffffffffffffffffffffffffffffffffffffffff1602179055506001820181600101908054614af090615985565b614afb929190614d11565b50600282015481600201556003820160009054906101000a900460ff168160030160006101000a81548160ff02191690836001811115614b64577f4e487b7100000000000000000000000000000000000000000000000000000000600052602160045260246000fd5b021790555060048201548160040155600582015481600501556006820160009054906101000a900460ff168160060160006101000a81548160ff02191690831515021790555090505084805480614be4577f4e487b7100000000000000000000000000000000000000000000000000000000600052603160045260246000fd5b6001900381819060005260206000209060070201600080820160006101000a81549073ffffffffffffffffffffffffffffffffffffffff0219169055600182016000614c309190614d9e565b60028201600090556003820160006101000a81549060ff0219169055600482016000905560058201600090556006820160006101000a81549060ff0219169055505090555b6135a0565b50505050505050565b600033905090565b828054614c9790615985565b90600052602060002090601f016020900481019282614cb95760008555614d00565b82601f10614cd257805160ff1916838001178555614d00565b82800160010185558215614d00579182015b82811115614cff578251825591602001919060010190614ce4565b5b509050614d0d9190614dde565b5090565b828054614d1d90615985565b90600052602060002090601f016020900481019282614d3f5760008555614d8d565b82601f10614d505780548555614d8d565b82800160010185558215614d8d57600052602060002091601f016020900482015b82811115614d8c578254825591600101919060010190614d71565b5b509050614d9a9190614dde565b5090565b508054614daa90615985565b6000825580601f10614dbc5750614ddb565b601f016020900490600052602060002090810190614dda9190614dde565b5b50565b5b80821115614df7576000816000905550600101614ddf565b5090565b6000614e0e614e098461561e565b6155f9565b905082815260208101848484011115614e2657600080fd5b614e31848285615943565b509392505050565b600081359050614e4881615bfc565b92915050565b600081519050614e5d81615c13565b92915050565b600081359050614e7281615c2a565b92915050565b600081359050614e8781615c3a565b92915050565b600082601f830112614e9e57600080fd5b8135614eae848260208601614dfb565b91505092915050565b600081359050614ec681615c51565b92915050565b600060208284031215614ede57600080fd5b6000614eec84828501614e39565b91505092915050565b60008060408385031215614f0857600080fd5b6000614f1685828601614e39565b925050602083013567ffffffffffffffff811115614f3357600080fd5b614f3f85828601614e8d565b9150509250929050565b600060208284031215614f5b57600080fd5b6000614f6984828501614e4e565b91505092915050565b60008060408385031215614f8557600080fd5b6000614f9385828601614e63565b925050602083013567ffffffffffffffff811115614fb057600080fd5b614fbc85828601614e8d565b9150509250929050565b60008060008060808587031215614fdc57600080fd5b6000614fea87828801614e63565b945050602085013567ffffffffffffffff81111561500757600080fd5b61501387828801614e8d565b935050604061502487828801614e78565b925050606061503587828801614e78565b91505092959194509250565b6000806000806080858703121561505757600080fd5b600061506587828801614e63565b945050602085013567ffffffffffffffff81111561508257600080fd5b61508e87828801614e8d565b935050604061509f87828801614eb7565b92505060606150b087828801614eb7565b91505092959194509250565b6000602082840312156150ce57600080fd5b600082013567ffffffffffffffff8111156150e857600080fd5b6150f484828501614e8d565b91505092915050565b6000806040838503121561511057600080fd5b600083013567ffffffffffffffff81111561512a57600080fd5b61513685828601614e8d565b925050602061514785828601614e39565b9150509250929050565b60006020828403121561516357600080fd5b600061517184828501614eb7565b91505092915050565b6000806040838503121561518d57600080fd5b600061519b85828601614eb7565b925050602083013567ffffffffffffffff8111156151b857600080fd5b6151c485828601614e8d565b9150509250929050565b60006151da83836153ae565b905092915050565b6151eb816158cc565b82525050565b6151fa816158cc565b82525050565b600061520b8261565f565b6152158185615682565b9350836020820285016152278561564f565b8060005b85811015615263578484038952815161524485826151ce565b945061524f83615675565b925060208a0199505060018101905061522b565b50829750879550505050505092915050565b61527e816158de565b82525050565b61528d816158de565b82525050565b61529c81615931565b82525050565b60006152ad8261566a565b6152b78185615693565b93506152c7818560208601615952565b6152d081615b36565b840191505092915050565b60006152e68261566a565b6152f081856156a4565b9350615300818560208601615952565b61530981615b36565b840191505092915050565b600061531f8261566a565b61532981856156b5565b9350615339818560208601615952565b80840191505092915050565b60006153526026836156a4565b915061535d82615b47565b604082019050919050565b60006153756020836156a4565b915061538082615b96565b602082019050919050565b60006153986003836156b5565b91506153a382615bbf565b600382019050919050565b600060e0830160008301516153c660008601826151e2565b50602083015184820360208601526153de82826152a2565b91505060408301516153f3604086018261544a565b5060608301516154066060860182615293565b506080830151615419608086018261544a565b5060a083015161542c60a086018261544a565b5060c083015161543f60c0860182615275565b508091505092915050565b61545381615927565b82525050565b61546281615927565b82525050565b60006154748284615314565b915081905092915050565b600061548a8261538b565b9150819050919050565b60006020820190506154a960008301846151f1565b92915050565b60006060820190506154c460008301866151f1565b6154d160208301856151f1565b6154de6040830184615459565b949350505050565b60006040820190506154fb60008301856151f1565b6155086020830184615459565b9392505050565b600060208201905081810360008301526155298184615200565b905092915050565b60006020820190506155466000830184615284565b92915050565b6000602082019050818103600083015261556681846152db565b905092915050565b6000604082019050818103600083015261558881856152db565b905061559760208301846151f1565b9392505050565b600060208201905081810360008301526155b781615345565b9050919050565b600060208201905081810360008301526155d781615368565b9050919050565b60006020820190506155f36000830184615459565b92915050565b6000615603615614565b905061560f82826159b7565b919050565b6000604051905090565b600067ffffffffffffffff82111561563957615638615b07565b5b61564282615b36565b9050602081019050919050565b6000819050602082019050919050565b600081519050919050565b600081519050919050565b6000602082019050919050565b600082825260208201905092915050565b600082825260208201905092915050565b600082825260208201905092915050565b600081905092915050565b60006156cb826158fd565b91506156d6836158fd565b9250817f7fffffffffffffffffffffffffffffffffffffffffffffffffffffffffffffff0383136000831215161561571157615710615a7a565b5b817f800000000000000000000000000000000000000000000000000000000000000003831260008312161561574957615748615a7a565b5b828201905092915050565b600061575f82615927565b915061576a83615927565b9250827fffffffffffffffffffffffffffffffffffffffffffffffffffffffffffffffff0382111561579f5761579e615a7a565b5b828201905092915050565b60006157b582615927565b91506157c083615927565b9250817fffffffffffffffffffffffffffffffffffffffffffffffffffffffffffffffff04831182151516156157f9576157f8615a7a565b5b828202905092915050565b600061580f826158fd565b915061581a836158fd565b9250827f80000000000000000000000000000000000000000000000000000000000000000182126000841215161561585557615854615a7a565b5b827f7fffffffffffffffffffffffffffffffffffffffffffffffffffffffffffffff01821360008412161561588d5761588c615a7a565b5b828203905092915050565b60006158a382615927565b91506158ae83615927565b9250828210156158c1576158c0615a7a565b5b828203905092915050565b60006158d782615907565b9050919050565b60008115159050919050565b60008190506158f882615be8565b919050565b6000819050919050565b600073ffffffffffffffffffffffffffffffffffffffff82169050919050565b6000819050919050565b600061593c826158ea565b9050919050565b82818337600083830152505050565b60005b83811015615970578082015181840152602081019050615955565b8381111561597f576000848401525b50505050565b6000600282049050600182168061599d57607f821691505b602082108114156159b1576159b0615ad8565b5b50919050565b6159c082615b36565b810181811067ffffffffffffffff821117156159df576159de615b07565b5b80604052505050565b60006159f3826158fd565b91507f7fffffffffffffffffffffffffffffffffffffffffffffffffffffffffffffff821415615a2657615a25615a7a565b5b600182019050919050565b6000615a3c82615927565b91507fffffffffffffffffffffffffffffffffffffffffffffffffffffffffffffffff821415615a6f57615a6e615a7a565b5b600182019050919050565b7f4e487b7100000000000000000000000000000000000000000000000000000000600052601160045260246000fd5b7f4e487b7100000000000000000000000000000000000000000000000000000000600052602160045260246000fd5b7f4e487b7100000000000000000000000000000000000000000000000000000000600052602260045260246000fd5b7f4e487b7100000000000000000000000000000000000000000000000000000000600052604160045260246000fd5b6000601f19601f8301169050919050565b7f4f776e61626c653a206e6577206f776e657220697320746865207a65726f206160008201527f6464726573730000000000000000000000000000000000000000000000000000602082015250565b7f4f776e61626c653a2063616c6c6572206973206e6f7420746865206f776e6572600082015250565b7f4554480000000000000000000000000000000000000000000000000000000000600082015250565b60028110615bf957615bf8615aa9565b5b50565b615c05816158cc565b8114615c1057600080fd5b50565b615c1c816158de565b8114615c2757600080fd5b50565b60028110615c3757600080fd5b50565b615c43816158fd565b8114615c4e57600080fd5b50565b615c5a81615927565b8114615c6557600080fd5b5056fea2646970667358221220ecec00606aa223a4609f95d3b5826656845a4689f09a57ed7ec45415cb97c4c264736f6c63430008040033",
  "immutableReferences": {},
  "source": "// SPDX-License-Identifier: MIT\r\npragma solidity >=0.4.22 <0.9.0;\r\npragma experimental ABIEncoderV2;\r\n\r\nimport \"./wallet.sol\";\r\nimport \"../node_modules/@openzeppelin//contracts/access/Ownable.sol\";\r\n\r\ncontract Dex is Wallet {\r\n\r\n    uint private id = 0;\r\n    int low = 0;\r\n    int highB;\r\n    int highS;\r\n    \r\n    enum Side {\r\n        BUY,\r\n        SELL\r\n    }\r\n\r\n    struct Order {\r\n\r\n        address trader;\r\n        string ticker;\r\n        uint256 amount;\r\n        Side side;\r\n        uint id;\r\n        uint price;\r\n        bool filled;\r\n    }\r\n\r\n    \r\n    mapping(string => mapping(uint => Order[])) LimitOrderBook;\r\n  \r\n  \r\n    function getOrders(Side side, string memory ticker) public view returns(Order[] memory) {\r\n        //return LimitOrderBook[ticker][uint(side)] book\r\n        return (LimitOrderBook[ticker][uint(side)]);\r\n    }\r\n\r\n    //to create a limit LimitOrderBook[ticker][uint(side)] we need to pass in the token ticker, whethere it is a buy or sell LimitOrderBook[ticker][uint(side)]\r\n    //the amount of tokens for the LimitOrderBook[ticker][uint(side)] and at what price we want to buy and sell at\r\n    function createLimitOrder(Side side, string memory ticker, uint amount, uint price) public {\r\n        \r\n        //handle first case for LimitOrderBook[ticker][uint(side)] if it is buy(We must have enough eth to make the LimitOrderBook[ticker][uint(side)])\r\n        //the balances mapping is inherited from our wallet contrac\r\n        if (side == Side.BUY) {\r\n\r\n          require(balances[msg.sender][\"ETH\"] >= amount * price);\r\n          require(balances[msg.sender][ticker] >= amount);\r\n          \r\n          \r\n          Order[] storage newOrder = LimitOrderBook[ticker][uint(side)]; \r\n          highB = int(newOrder.length);\r\n          newOrder.push(Order(msg.sender, ticker, amount, side, id, price, false));\r\n          sortOrder(side, ticker, low, highB);\r\n          settleOrders(ticker, side);\r\n          id++;\r\n          highB++;\r\n\r\n        }else {\r\n\r\n          require(balances[msg.sender][ticker] >= amount * price);\r\n          require(balances[msg.sender][ticker] >= amount);\r\n          \r\n          \r\n          Order[] storage newOrder = LimitOrderBook[ticker][uint(side)]; \r\n          highS = int(newOrder.length);\r\n          newOrder.push(Order(msg.sender, ticker, amount, side, id, price, false));\r\n          sortOrder(side, ticker, low, highS);\r\n          settleOrders(ticker, side);\r\n          id++;\r\n          highS++;\r\n\r\n\r\n        }\r\n\r\n    }\r\n\r\n    function createMarketOrder(Side side, string memory ticker, uint amount, uint price) public {\r\n     \r\n\r\n        if (side == Side.BUY) {\r\n\r\n          side = Side.SELL;\r\n        }else {\r\n\r\n          side = Side.BUY;\r\n        }\r\n        //handle first case for LimitOrderBook[ticker][uint(side)] if it is buy(We must have enough eth to make the LimitOrderBook[ticker][uint(side)]\r\n        //the balances mapping is inherited from our wallet contrac\r\n        if (side == Side.BUY) {\r\n\r\n          require(balances[msg.sender][\"ETH\"] >= amount * price);\r\n          //require(balances[msg.sender][ticker] >= amount);\r\n\r\n          //create new order instance for the buy side\r\n          Order[] storage newOrder = LimitOrderBook[ticker][uint(side)];\r\n          newOrder.push(Order(msg.sender, ticker, amount, side, id, price, false));\r\n\r\n          settleOrders(ticker, side);\r\n          \r\n\r\n        }else {\r\n\r\n          require(balances[msg.sender][ticker] >= amount * price);\r\n          //require(balances[msg.sender][ticker] >= amount);\r\n\r\n          Order[] storage newOrder = LimitOrderBook[ticker][uint(side)];\r\n          newOrder.push(Order(msg.sender, ticker, amount, side, id, price, false));\r\n\r\n          settleOrders(ticker, side);\r\n\r\n         \r\n          \r\n        }\r\n\r\n    }\r\n\r\n    function settleOrders(string memory ticker, Side side) internal {\r\n\r\n      Order[] storage LimitOrder;\r\n      Order[] storage newOrder;\r\n      if (side == Side.BUY) {\r\n\r\n        LimitOrder = LimitOrderBook[ticker][uint(Side.SELL)];\r\n        newOrder = LimitOrderBook[ticker][uint(Side.BUY)];\r\n\r\n      }else {\r\n\r\n        LimitOrder = LimitOrderBook[ticker][uint(Side.BUY)];\r\n        newOrder = LimitOrderBook[ticker][uint(Side.SELL)];\r\n      }\r\n      \r\n      uint i = 0;\r\n      uint cost = 0;\r\n      uint fillAmount;\r\n      while (newOrder.length > 0) {\r\n            \r\n            //handle case when limit order book is empty\r\n            if (LimitOrder.length == 0) {\r\n              break;\r\n            }\r\n            //handle case when market order amount == limit order amt\r\n            if (newOrder[i].amount == LimitOrder[i].amount) {\r\n                fillAmount = 0;\r\n                fillAmount = newOrder[i].amount;\r\n                newOrder[i].amount -= newOrder[i].amount;\r\n                LimitOrder[i].amount -= LimitOrder[i].amount;\r\n                newOrder[i].filled = true;\r\n                LimitOrder[i].filled = true;\r\n                cost = fillAmount * LimitOrder[i].price;\r\n               \r\n               \r\n              }\r\n\r\n              //handle case when limit order < market order\r\n              else if (newOrder[i].amount > LimitOrder[i].amount) {\r\n                fillAmount = 0;\r\n                fillAmount = LimitOrder[i].amount;\r\n                newOrder[i].amount -= LimitOrder[i].amount;\r\n                LimitOrder[i].amount -= LimitOrder[i].amount;\r\n                LimitOrder[i].filled = true;\r\n                cost = fillAmount * LimitOrder[i].price;\r\n              }\r\n\r\n              //handle case when limit order > market order\r\n              else if (newOrder[i].amount < LimitOrder[i].amount) {\r\n                fillAmount = 0;\r\n                fillAmount = newOrder[i].amount;\r\n                newOrder[i].amount -= newOrder[i].amount;\r\n                LimitOrder[i].amount -= newOrder[i].amount;\r\n                newOrder[i].filled = true;\r\n                cost = fillAmount * LimitOrder[i].price;\r\n               \r\n              }\r\n\r\n              // cost = fillAmount * LimitOrder[i].price;\r\n              // //transfer funds and update balances\r\n              if (side == Side.SELL) {\r\n\r\n                balances[LimitOrder[i].trader][ticker] += fillAmount;\r\n                balances[LimitOrder[i].trader][\"ETH\"] -= cost;\r\n\r\n                balances[newOrder[i].trader][ticker] -= fillAmount;\r\n                balances[newOrder[i].trader][\"ETH\"] += cost;\r\n\r\n              }else {\r\n\r\n                balances[LimitOrder[i].trader][ticker] -= fillAmount;\r\n                balances[LimitOrder[i].trader][\"ETH\"] += cost;\r\n\r\n                balances[newOrder[i].trader][ticker] += fillAmount;\r\n                balances[newOrder[i].trader][\"ETH\"] -= cost;\r\n              }\r\n              \r\n\r\n              if (newOrder[i].filled) {\r\n                  newOrder[i] = newOrder[newOrder.length - 1];\r\n                  newOrder.pop();\r\n              }\r\n\r\n              if (LimitOrder[i].filled) {\r\n                LimitOrder[i] = LimitOrder[LimitOrder.length - 1];\r\n                LimitOrder.pop();\r\n                \r\n            }      \r\n\r\n\r\n          }\r\n          \r\n    }\r\n\r\n   \r\n    function sortOrder(Side side, string memory ticker, int low, int high) public {\r\n     // side = Side.BUY;\r\n      if (side == Side.BUY) {\r\n\r\n        if (low < high) {\r\n          int pivot = int(LimitOrderBook[ticker][uint(side)][uint(high)].price);\r\n          int i = (low-1); // index of smaller element\r\n          for (int j = low; j < high; j++) {\r\n            if (int(LimitOrderBook[ticker][uint(side)][uint(j)].price) <= pivot) {\r\n              i++;\r\n              if (i != j) {\r\n                LimitOrderBook[ticker][uint(side)][uint(i)].price ^= LimitOrderBook[ticker][uint(side)][uint(j)].price;\r\n                LimitOrderBook[ticker][uint(side)][uint(j)].price ^= LimitOrderBook[ticker][uint(side)][uint(i)].price;\r\n                LimitOrderBook[ticker][uint(side)][uint(i)].price ^= LimitOrderBook[ticker][uint(side)][uint(j)].price;\r\n              }\r\n            }\r\n          }\r\n          if (i+1 != high) {\r\n            LimitOrderBook[ticker][uint(side)][uint(i+1)].price ^= LimitOrderBook[ticker][uint(side)][uint(high)].price;\r\n            LimitOrderBook[ticker][uint(side)][uint(high)].price ^= LimitOrderBook[ticker][uint(side)][uint(i+1)].price;\r\n            LimitOrderBook[ticker][uint(side)][uint(i+1)].price ^= LimitOrderBook[ticker][uint(side)][uint(high)].price;\r\n          }\r\n          pivot = i + 1;\r\n          sortOrder(side, ticker, low, pivot-1);\r\n          sortOrder(side, ticker, pivot+1, high);\r\n\r\n        }\r\n      } else {\r\n          if (low < high) {\r\n            int pivot = int(LimitOrderBook[ticker][uint(side)][uint(high)].price);\r\n            int i = (low-1); // index of smaller element\r\n            for (int j = low; j < high; j++) {\r\n              if (int(LimitOrderBook[ticker][uint(side)][uint(j)].price) >= pivot) {\r\n                i++;\r\n                if (i != j) {\r\n                  LimitOrderBook[ticker][uint(side)][uint(i)].price ^= LimitOrderBook[ticker][uint(side)][uint(j)].price;\r\n                  LimitOrderBook[ticker][uint(side)][uint(j)].price ^= LimitOrderBook[ticker][uint(side)][uint(i)].price;\r\n                  LimitOrderBook[ticker][uint(side)][uint(i)].price ^= LimitOrderBook[ticker][uint(side)][uint(j)].price;\r\n                }\r\n              }\r\n            }\r\n            if (i+1 != high) {\r\n              LimitOrderBook[ticker][uint(side)][uint(i+1)].price ^= LimitOrderBook[ticker][uint(side)][uint(high)].price;\r\n              LimitOrderBook[ticker][uint(side)][uint(high)].price ^= LimitOrderBook[ticker][uint(side)][uint(i+1)].price;\r\n              LimitOrderBook[ticker][uint(side)][uint(i+1)].price ^= LimitOrderBook[ticker][uint(side)][uint(high)].price;\r\n            }\r\n            pivot = i + 1;\r\n            sortOrder(side, ticker, low, pivot-1);\r\n            sortOrder(side, ticker, pivot+1, high);\r\n\r\n      }\r\n      \r\n      }\r\n    }\r\n\r\n}\r\n\r\n",
  "sourcePath": "C:/Users/evanm/OneDrive/Documents/EthereumProgramming/Solidity-201/DexProject/contracts/dex.sol",
  "compiler": {
    "name": "solc",
    "version": "0.8.4+commit.c7e474f2.Emscripten.clang"
  },
  "schemaVersion": "3.3.4",
  "updatedAt": "2021-05-20T18:51:36.416Z",
  "networkType": "ethereum",
  "devdoc": {
    "kind": "dev",
    "methods": {
      "owner()": {
        "details": "Returns the address of the current owner."
      },
      "renounceOwnership()": {
        "details": "Leaves the contract without owner. It will not be possible to call `onlyOwner` functions anymore. Can only be called by the current owner. NOTE: Renouncing ownership will leave the contract without an owner, thereby removing any functionality that is only available to the owner."
      },
      "transferOwnership(address)": {
        "details": "Transfers ownership of the contract to a new account (`newOwner`). Can only be called by the current owner."
      }
    },
    "version": 1
  },
  "userdoc": {
    "kind": "user",
    "methods": {},
    "version": 1
  }
}