{
  "contractName": "DexSort",
  "abi": [
    {
      "inputs": [
        {
          "internalType": "enum DexSort.Side",
          "name": "side",
          "type": "uint8"
        },
        {
          "internalType": "string",
          "name": "ticker",
          "type": "string"
        },
        {
          "internalType": "int256",
          "name": "low",
          "type": "int256"
        },
        {
          "internalType": "int256",
          "name": "high",
          "type": "int256"
        }
      ],
      "name": "sortOrder",
      "outputs": [],
      "stateMutability": "nonpayable",
      "type": "function"
    }
  ],
  "bytecode": "0x608060405234801561001057600080fd5b50610f98806100206000396000f3fe608060405234801561001057600080fd5b506004361061002b5760003560e01c80633fa6b1c014610030575b600080fd5b61004a60048036038101906100459190610baf565b61004c565b005b80821215610b1757600080846040516100659190610c5b565b908152602001604051809103902060008660018111156100ae577f4e487b7100000000000000000000000000000000000000000000000000000000600052602160045260246000fd5b815260200190815260200160002082815481106100f4577f4e487b7100000000000000000000000000000000000000000000000000000000600052603260045260246000fd5b906000526020600020906007020160050154905060006001846101179190610d72565b905060008490505b8381121561065257826000876040516101389190610c5b565b90815260200160405180910390206000896001811115610181577f4e487b7100000000000000000000000000000000000000000000000000000000600052602160045260246000fd5b815260200190815260200160002082815481106101c7577f4e487b7100000000000000000000000000000000000000000000000000000000600052603260045260246000fd5b9060005260206000209060070201600501541361063f5781806101e990610e83565b92505080821461063e576000866040516102039190610c5b565b9081526020016040518091039020600088600181111561024c577f4e487b7100000000000000000000000000000000000000000000000000000000600052602160045260246000fd5b81526020019081526020016000208181548110610292577f4e487b7100000000000000000000000000000000000000000000000000000000600052603260045260246000fd5b9060005260206000209060070201600501546000876040516102b49190610c5b565b908152602001604051809103902060008960018111156102fd577f4e487b7100000000000000000000000000000000000000000000000000000000600052602160045260246000fd5b81526020019081526020016000208381548110610343577f4e487b7100000000000000000000000000000000000000000000000000000000600052603260045260246000fd5b9060005260206000209060070201600501600082825418925050819055506000866040516103719190610c5b565b908152602001604051809103902060008860018111156103ba577f4e487b7100000000000000000000000000000000000000000000000000000000600052602160045260246000fd5b81526020019081526020016000208281548110610400577f4e487b7100000000000000000000000000000000000000000000000000000000600052603260045260246000fd5b9060005260206000209060070201600501546000876040516104229190610c5b565b9081526020016040518091039020600089600181111561046b577f4e487b7100000000000000000000000000000000000000000000000000000000600052602160045260246000fd5b815260200190815260200160002082815481106104b1577f4e487b7100000000000000000000000000000000000000000000000000000000600052603260045260246000fd5b9060005260206000209060070201600501600082825418925050819055506000866040516104df9190610c5b565b90815260200160405180910390206000886001811115610528577f4e487b7100000000000000000000000000000000000000000000000000000000600052602160045260246000fd5b8152602001908152602001600020818154811061056e577f4e487b7100000000000000000000000000000000000000000000000000000000600052603260045260246000fd5b9060005260206000209060070201600501546000876040516105909190610c5b565b908152602001604051809103902060008960018111156105d9577f4e487b7100000000000000000000000000000000000000000000000000000000600052602160045260246000fd5b8152602001908152602001600020838154811061061f577f4e487b7100000000000000000000000000000000000000000000000000000000600052603260045260246000fd5b9060005260206000209060070201600501600082825418925050819055505b5b808061064a90610e83565b91505061011f565b50826001826106619190610cde565b14610ad5576000856040516106769190610c5b565b908152602001604051809103902060008760018111156106bf577f4e487b7100000000000000000000000000000000000000000000000000000000600052602160045260246000fd5b81526020019081526020016000208381548110610705577f4e487b7100000000000000000000000000000000000000000000000000000000600052603260045260246000fd5b9060005260206000209060070201600501546000866040516107279190610c5b565b90815260200160405180910390206000886001811115610770577f4e487b7100000000000000000000000000000000000000000000000000000000600052602160045260246000fd5b815260200190815260200160002060018361078b9190610cde565b815481106107c2577f4e487b7100000000000000000000000000000000000000000000000000000000600052603260045260246000fd5b9060005260206000209060070201600501600082825418925050819055506000856040516107f09190610c5b565b90815260200160405180910390206000876001811115610839577f4e487b7100000000000000000000000000000000000000000000000000000000600052602160045260246000fd5b81526020019081526020016000206001826108549190610cde565b8154811061088b577f4e487b7100000000000000000000000000000000000000000000000000000000600052603260045260246000fd5b9060005260206000209060070201600501546000866040516108ad9190610c5b565b908152602001604051809103902060008860018111156108f6577f4e487b7100000000000000000000000000000000000000000000000000000000600052602160045260246000fd5b8152602001908152602001600020848154811061093c577f4e487b7100000000000000000000000000000000000000000000000000000000600052603260045260246000fd5b90600052602060002090600702016005016000828254189250508190555060008560405161096a9190610c5b565b908152602001604051809103902060008760018111156109b3577f4e487b7100000000000000000000000000000000000000000000000000000000600052602160045260246000fd5b815260200190815260200160002083815481106109f9577f4e487b7100000000000000000000000000000000000000000000000000000000600052603260045260246000fd5b906000526020600020906007020160050154600086604051610a1b9190610c5b565b90815260200160405180910390206000886001811115610a64577f4e487b7100000000000000000000000000000000000000000000000000000000600052602160045260246000fd5b8152602001908152602001600020600183610a7f9190610cde565b81548110610ab6577f4e487b7100000000000000000000000000000000000000000000000000000000600052603260045260246000fd5b9060005260206000209060070201600501600082825418925050819055505b600181610ae29190610cde565b9150610afc868686600186610af79190610d72565b61004c565b610b148686600185610b0e9190610cde565b8661004c565b50505b50505050565b6000610b30610b2b84610c97565b610c72565b905082815260208101848484011115610b4857600080fd5b610b53848285610e10565b509392505050565b600081359050610b6a81610f3b565b92915050565b600081359050610b7f81610f4b565b92915050565b600082601f830112610b9657600080fd5b8135610ba6848260208601610b1d565b91505092915050565b60008060008060808587031215610bc557600080fd5b6000610bd387828801610b5b565b945050602085013567ffffffffffffffff811115610bf057600080fd5b610bfc87828801610b85565b9350506040610c0d87828801610b70565b9250506060610c1e87828801610b70565b91505092959194509250565b6000610c3582610cc8565b610c3f8185610cd3565b9350610c4f818560208601610e1f565b80840191505092915050565b6000610c678284610c2a565b915081905092915050565b6000610c7c610c8d565b9050610c888282610e52565b919050565b6000604051905090565b600067ffffffffffffffff821115610cb257610cb1610efb565b5b610cbb82610f2a565b9050602081019050919050565b600081519050919050565b600081905092915050565b6000610ce982610e06565b9150610cf483610e06565b9250817f7fffffffffffffffffffffffffffffffffffffffffffffffffffffffffffffff03831360008312151615610d2f57610d2e610ecc565b5b817f8000000000000000000000000000000000000000000000000000000000000000038312600083121615610d6757610d66610ecc565b5b828201905092915050565b6000610d7d82610e06565b9150610d8883610e06565b9250827f800000000000000000000000000000000000000000000000000000000000000001821260008412151615610dc357610dc2610ecc565b5b827f7fffffffffffffffffffffffffffffffffffffffffffffffffffffffffffffff018213600084121615610dfb57610dfa610ecc565b5b828203905092915050565b6000819050919050565b82818337600083830152505050565b60005b83811015610e3d578082015181840152602081019050610e22565b83811115610e4c576000848401525b50505050565b610e5b82610f2a565b810181811067ffffffffffffffff82111715610e7a57610e79610efb565b5b80604052505050565b6000610e8e82610e06565b91507f7fffffffffffffffffffffffffffffffffffffffffffffffffffffffffffffff821415610ec157610ec0610ecc565b5b600182019050919050565b7f4e487b7100000000000000000000000000000000000000000000000000000000600052601160045260246000fd5b7f4e487b7100000000000000000000000000000000000000000000000000000000600052604160045260246000fd5b6000601f19601f8301169050919050565b60028110610f4857600080fd5b50565b610f5481610e06565b8114610f5f57600080fd5b5056fea2646970667358221220941cc54588b94b4fa70c16098a62eca9a441d09aa51882c3a80a5f88f8b97e4964736f6c63430008040033",
  "immutableReferences": {},
  "source": "// SPDX-License-Identifier: MIT\r\npragma solidity >=0.4.22 <0.9.0;\r\npragma experimental ABIEncoderV2;\r\n\r\n//import \"./wallet.sol\";\r\nimport \"../node_modules/@openzeppelin//contracts/access/Ownable.sol\";\r\n\r\n\r\n\r\ncontract DexSort  {\r\n\r\n\r\n    //uint id = 0;\r\n    enum Side {\r\n        BUY,\r\n        SELL\r\n    }\r\n\r\n\r\n    struct Order {\r\n\r\n        address trader;\r\n        string ticker;\r\n        uint256 amount;\r\n        Side side;\r\n        uint id;\r\n        uint price;\r\n        bool filled;\r\n    }\r\n\r\n    \r\n    //need double mapping to map a token to a buy/sell LimitOrderBook[ticker][uint(side)]\r\n    mapping(string => mapping(uint => Order[])) LimitOrderBook;\r\n    \r\n\r\n    function sortOrder(Side side, string memory ticker, int low, int high) public {\r\n     // side = Side.BUY;\r\n      if (low < high) {\r\n\r\n        //define arbritarty pivot i just use the last array element\r\n        int pivot = int(LimitOrderBook[ticker][uint(side)][uint(high)].price);\r\n        int i = (low-1); // index of smaller element\r\n        for (int j = low; j < high; j++) {\r\n          //important to convert pivot int. \r\n          if (int(LimitOrderBook[ticker][uint(side)][uint(j)].price) <= pivot) {\r\n            i++;\r\n           //Note that the code does not swap the integers passed immediately, but first checks if their \r\n           //addresses are distinct. This is because, if the addresses are equal, the algorithm will fold to a \r\n           //triple *x ^= *x resulting in zero.\r\n            if (i != j) {\r\n              //i and j or i+1 and high might be the same address in the array. \r\n              //we need to avoid avoid that edge case we acn use the ^= operator:\r\n              LimitOrderBook[ticker][uint(side)][uint(i)].price ^= LimitOrderBook[ticker][uint(side)][uint(j)].price;\r\n              LimitOrderBook[ticker][uint(side)][uint(j)].price ^= LimitOrderBook[ticker][uint(side)][uint(i)].price;\r\n              LimitOrderBook[ticker][uint(side)][uint(i)].price ^= LimitOrderBook[ticker][uint(side)][uint(j)].price;\r\n            }\r\n          }\r\n        }\r\n        if (i+1 != high) {\r\n          //we do the same checks here again to make sure i + 1 is \r\n         //is not the same address\r\n          LimitOrderBook[ticker][uint(side)][uint(i+1)].price ^= LimitOrderBook[ticker][uint(side)][uint(high)].price;\r\n          LimitOrderBook[ticker][uint(side)][uint(high)].price ^= LimitOrderBook[ticker][uint(side)][uint(i+1)].price;\r\n          LimitOrderBook[ticker][uint(side)][uint(i+1)].price ^= LimitOrderBook[ticker][uint(side)][uint(high)].price;\r\n        }\r\n\r\n        //update pivot\r\n        pivot = i + 1;\r\n        //Much like quicksort we now do a recursive call which calls soet again\r\n        //and sorts our list until base case when the list in finished being sorted\r\n        sortOrder(side, ticker, low, pivot-1);\r\n        sortOrder(side, ticker, pivot+1, high);\r\n      \r\n      }\r\n    //   } else {\r\n    //       if (low < high) {\r\n    //         int pivot = int(LimitOrderBook[ticker][uint(side)][uint(high)].price);\r\n    //         int i = (low-1); // index of smaller element\r\n    //         for (int j = low; j < high; j++) {\r\n    //           if (int(LimitOrderBook[ticker][uint(side)][uint(j)].price) >= pivot) {\r\n    //             i++;\r\n    //             if (i != j) {\r\n    //               LimitOrderBook[ticker][uint(side)][uint(i)].price ^= LimitOrderBook[ticker][uint(side)][uint(j)].price;\r\n    //               LimitOrderBook[ticker][uint(side)][uint(j)].price ^= LimitOrderBook[ticker][uint(side)][uint(i)].price;\r\n    //               LimitOrderBook[ticker][uint(side)][uint(i)].price ^= LimitOrderBook[ticker][uint(side)][uint(j)].price;\r\n    //             }\r\n    //           }\r\n    //         }\r\n    //         if (i+1 != high) {\r\n    //           LimitOrderBook[ticker][uint(side)][uint(i+1)].price ^= LimitOrderBook[ticker][uint(side)][uint(high)].price;\r\n    //           LimitOrderBook[ticker][uint(side)][uint(high)].price ^= LimitOrderBook[ticker][uint(side)][uint(i+1)].price;\r\n    //           LimitOrderBook[ticker][uint(side)][uint(i+1)].price ^= LimitOrderBook[ticker][uint(side)][uint(high)].price;\r\n    //         }\r\n    //         pivot = i + 1;\r\n    //         sortOrder(side, ticker, low, pivot-1);\r\n    //         sortOrder(side, ticker, pivot+1, high);\r\n\r\n\r\n\r\n    //   }\r\n      \r\n      \r\n    }\r\n}",
  "sourcePath": "C:/Users/evanm/OneDrive/Documents/EthereumProgramming/Solidity-201/DexProject/contracts/dexSort.sol",
  "compiler": {
    "name": "solc",
    "version": "0.8.4+commit.c7e474f2.Emscripten.clang"
  },
  "schemaVersion": "3.3.4",
  "updatedAt": "2021-05-20T17:10:48.536Z",
  "networkType": "ethereum",
  "devdoc": {
    "kind": "dev",
    "methods": {},
    "version": 1
  },
  "userdoc": {
    "kind": "user",
    "methods": {},
    "version": 1
  }
}