{
  "contractName": "Wallet",
  "abi": [
    {
      "anonymous": false,
      "inputs": [
        {
          "indexed": true,
          "internalType": "address",
          "name": "previousOwner",
          "type": "address"
        },
        {
          "indexed": true,
          "internalType": "address",
          "name": "newOwner",
          "type": "address"
        }
      ],
      "name": "OwnershipTransferred",
      "type": "event"
    },
    {
      "anonymous": false,
      "inputs": [
        {
          "indexed": false,
          "internalType": "address",
          "name": "depositedFrom",
          "type": "address"
        },
        {
          "indexed": false,
          "internalType": "address",
          "name": "depositedTo",
          "type": "address"
        },
        {
          "indexed": false,
          "internalType": "uint256",
          "name": "amount",
          "type": "uint256"
        },
        {
          "indexed": false,
          "internalType": "string",
          "name": "ticker",
          "type": "string"
        }
      ],
      "name": "deposited",
      "type": "event"
    },
    {
      "inputs": [
        {
          "internalType": "address",
          "name": "",
          "type": "address"
        },
        {
          "internalType": "string",
          "name": "",
          "type": "string"
        }
      ],
      "name": "balances",
      "outputs": [
        {
          "internalType": "uint256",
          "name": "",
          "type": "uint256"
        }
      ],
      "stateMutability": "view",
      "type": "function"
    },
    {
      "inputs": [],
      "name": "owner",
      "outputs": [
        {
          "internalType": "address",
          "name": "",
          "type": "address"
        }
      ],
      "stateMutability": "view",
      "type": "function"
    },
    {
      "inputs": [],
      "name": "renounceOwnership",
      "outputs": [],
      "stateMutability": "nonpayable",
      "type": "function"
    },
    {
      "inputs": [
        {
          "internalType": "uint256",
          "name": "",
          "type": "uint256"
        }
      ],
      "name": "tokenList",
      "outputs": [
        {
          "internalType": "string",
          "name": "",
          "type": "string"
        }
      ],
      "stateMutability": "view",
      "type": "function"
    },
    {
      "inputs": [
        {
          "internalType": "string",
          "name": "",
          "type": "string"
        }
      ],
      "name": "tokenMapping",
      "outputs": [
        {
          "internalType": "string",
          "name": "ticker",
          "type": "string"
        },
        {
          "internalType": "address",
          "name": "tokenAddress",
          "type": "address"
        }
      ],
      "stateMutability": "view",
      "type": "function"
    },
    {
      "inputs": [
        {
          "internalType": "address",
          "name": "newOwner",
          "type": "address"
        }
      ],
      "name": "transferOwnership",
      "outputs": [],
      "stateMutability": "nonpayable",
      "type": "function"
    },
    {
      "inputs": [],
      "name": "getOwner",
      "outputs": [
        {
          "internalType": "address",
          "name": "",
          "type": "address"
        }
      ],
      "stateMutability": "view",
      "type": "function"
    },
    {
      "inputs": [
        {
          "internalType": "string",
          "name": "ticker",
          "type": "string"
        },
        {
          "internalType": "address",
          "name": "tokenAddress",
          "type": "address"
        }
      ],
      "name": "addToken",
      "outputs": [],
      "stateMutability": "nonpayable",
      "type": "function"
    },
    {
      "inputs": [
        {
          "internalType": "uint256",
          "name": "amount",
          "type": "uint256"
        },
        {
          "internalType": "string",
          "name": "ticker",
          "type": "string"
        }
      ],
      "name": "deposit",
      "outputs": [
        {
          "internalType": "bool",
          "name": "_success",
          "type": "bool"
        }
      ],
      "stateMutability": "nonpayable",
      "type": "function"
    },
    {
      "inputs": [
        {
          "internalType": "uint256",
          "name": "amount",
          "type": "uint256"
        },
        {
          "internalType": "string",
          "name": "ticker",
          "type": "string"
        }
      ],
      "name": "withdraw",
      "outputs": [],
      "stateMutability": "nonpayable",
      "type": "function"
    },
    {
      "inputs": [
        {
          "internalType": "address",
          "name": "tokenHolder",
          "type": "address"
        },
        {
          "internalType": "string",
          "name": "ticker",
          "type": "string"
        }
      ],
      "name": "getBalance",
      "outputs": [
        {
          "internalType": "uint256",
          "name": "",
          "type": "uint256"
        }
      ],
      "stateMutability": "view",
      "type": "function"
    }
  ],
  "bytecode": "0x608060405234801561001057600080fd5b5060006100216100c460201b60201c565b9050806000806101000a81548173ffffffffffffffffffffffffffffffffffffffff021916908373ffffffffffffffffffffffffffffffffffffffff1602179055508073ffffffffffffffffffffffffffffffffffffffff16600073ffffffffffffffffffffffffffffffffffffffff167f8be0079c531659141344cd1fd0a4f28419497f9722a3daafe3b4186f6b6457e060405160405180910390a3506100cc565b600033905090565b61156b806100db6000396000f3fe608060405234801561001057600080fd5b50600436106100a95760003560e01c80639ead7222116100715780639ead722214610154578063b0b22c2c14610184578063dc048cf2146101a0578063e88ad953146101bc578063f1215d25146101ed578063f2fde38b1461021d576100a9565b806305d01f50146100ae5780631dd7cecf146100de578063715018a61461010e578063893d20e8146101185780638da5cb5b14610136575b600080fd5b6100c860048036038101906100c39190610e54565b610239565b6040516100d591906111ff565b60405180910390f35b6100f860048036038101906100f39190610e54565b610274565b60405161010591906111ff565b60405180910390f35b6101166102da565b005b610120610414565b60405161012d91906110d7565b60405180910390f35b61013e61041c565b60405161014b91906110d7565b60405180910390f35b61016e60048036038101906101699190610f66565b610445565b60405161017b919061116d565b60405180910390f35b61019e60048036038101906101999190610f12565b6104f1565b005b6101ba60048036038101906101b59190610f8f565b61065d565b005b6101d660048036038101906101d19190610ed1565b610885565b6040516101e492919061118f565b60405180910390f35b61020760048036038101906102029190610f8f565b610967565b6040516102149190611152565b60405180910390f35b61023760048036038101906102329190610e2b565b610b30565b005b600360205281600052604060002081805160208101820180518482526020830160208501208183528095505050505050600091509150505481565b6000600360008473ffffffffffffffffffffffffffffffffffffffff1673ffffffffffffffffffffffffffffffffffffffff168152602001908152602001600020826040516102c391906110c0565b908152602001604051809103902054905092915050565b6102e2610cd9565b73ffffffffffffffffffffffffffffffffffffffff1661030061041c565b73ffffffffffffffffffffffffffffffffffffffff1614610356576040517f08c379a000000000000000000000000000000000000000000000000000000000815260040161034d906111df565b60405180910390fd5b600073ffffffffffffffffffffffffffffffffffffffff1660008054906101000a900473ffffffffffffffffffffffffffffffffffffffff1673ffffffffffffffffffffffffffffffffffffffff167f8be0079c531659141344cd1fd0a4f28419497f9722a3daafe3b4186f6b6457e060405160405180910390a360008060006101000a81548173ffffffffffffffffffffffffffffffffffffffff021916908373ffffffffffffffffffffffffffffffffffffffff160217905550565b600033905090565b60008060009054906101000a900473ffffffffffffffffffffffffffffffffffffffff16905090565b6002818154811061045557600080fd5b90600052602060002001600091509050805461047090611377565b80601f016020809104026020016040519081016040528092919081815260200182805461049c90611377565b80156104e95780601f106104be576101008083540402835291602001916104e9565b820191906000526020600020905b8154815290600101906020018083116104cc57829003601f168201915b505050505081565b6104f9610cd9565b73ffffffffffffffffffffffffffffffffffffffff1661051761041c565b73ffffffffffffffffffffffffffffffffffffffff161461056d576040517f08c379a0000000000000000000000000000000000000000000000000000000008152600401610564906111df565b60405180910390fd5b60405180604001604052808381526020018273ffffffffffffffffffffffffffffffffffffffff168152506001836040516105a891906110c0565b908152602001604051809103902060008201518160000190805190602001906105d2929190610ce1565b5060208201518160010160006101000a81548173ffffffffffffffffffffffffffffffffffffffff021916908373ffffffffffffffffffffffffffffffffffffffff160217905550905050600282908060018154018082558091505060019003906000526020600020016000909190919091509080519060200190610658929190610ce1565b505050565b600073ffffffffffffffffffffffffffffffffffffffff1660018260405161068591906110c0565b908152602001604051809103902060010160009054906101000a900473ffffffffffffffffffffffffffffffffffffffff1673ffffffffffffffffffffffffffffffffffffffff1614156106d857600080fd5b81600360003373ffffffffffffffffffffffffffffffffffffffff1673ffffffffffffffffffffffffffffffffffffffff1681526020019081526020016000208260405161072691906110c0565b908152602001604051809103902054101561074057600080fd5b81600360003373ffffffffffffffffffffffffffffffffffffffff1673ffffffffffffffffffffffffffffffffffffffff1681526020019081526020016000208260405161078e91906110c0565b908152602001604051809103902060008282546107ab9190611297565b925050819055506001816040516107c291906110c0565b908152602001604051809103902060010160009054906101000a900473ffffffffffffffffffffffffffffffffffffffff1673ffffffffffffffffffffffffffffffffffffffff1663a9059cbb33846040518363ffffffff1660e01b815260040161082e929190611129565b602060405180830381600087803b15801561084857600080fd5b505af115801561085c573d6000803e3d6000fd5b505050506040513d601f19601f820116820180604052508101906108809190610ea8565b505050565b6001818051602081018201805184825260208301602085012081835280955050505050506000915090508060000180546108be90611377565b80601f01602080910402602001604051908101604052809291908181526020018280546108ea90611377565b80156109375780601f1061090c57610100808354040283529160200191610937565b820191906000526020600020905b81548152906001019060200180831161091a57829003601f168201915b5050505050908060010160009054906101000a900473ffffffffffffffffffffffffffffffffffffffff16905082565b60008073ffffffffffffffffffffffffffffffffffffffff1660018360405161099091906110c0565b908152602001604051809103902060010160009054906101000a900473ffffffffffffffffffffffffffffffffffffffff1673ffffffffffffffffffffffffffffffffffffffff1614156109e357600080fd5b6001826040516109f391906110c0565b908152602001604051809103902060010160009054906101000a900473ffffffffffffffffffffffffffffffffffffffff1673ffffffffffffffffffffffffffffffffffffffff166323b872dd3330866040518463ffffffff1660e01b8152600401610a61939291906110f2565b602060405180830381600087803b158015610a7b57600080fd5b505af1158015610a8f573d6000803e3d6000fd5b505050506040513d601f19601f82011682018060405250810190610ab39190610ea8565b5082600360003373ffffffffffffffffffffffffffffffffffffffff1673ffffffffffffffffffffffffffffffffffffffff16815260200190815260200160002083604051610b0291906110c0565b90815260200160405180910390206000828254610b1f9190611297565b925050819055506001905092915050565b610b38610cd9565b73ffffffffffffffffffffffffffffffffffffffff16610b5661041c565b73ffffffffffffffffffffffffffffffffffffffff1614610bac576040517f08c379a0000000000000000000000000000000000000000000000000000000008152600401610ba3906111df565b60405180910390fd5b600073ffffffffffffffffffffffffffffffffffffffff168173ffffffffffffffffffffffffffffffffffffffff161415610c1c576040517f08c379a0000000000000000000000000000000000000000000000000000000008152600401610c13906111bf565b60405180910390fd5b8073ffffffffffffffffffffffffffffffffffffffff1660008054906101000a900473ffffffffffffffffffffffffffffffffffffffff1673ffffffffffffffffffffffffffffffffffffffff167f8be0079c531659141344cd1fd0a4f28419497f9722a3daafe3b4186f6b6457e060405160405180910390a3806000806101000a81548173ffffffffffffffffffffffffffffffffffffffff021916908373ffffffffffffffffffffffffffffffffffffffff16021790555050565b600033905090565b828054610ced90611377565b90600052602060002090601f016020900481019282610d0f5760008555610d56565b82601f10610d2857805160ff1916838001178555610d56565b82800160010185558215610d56579182015b82811115610d55578251825591602001919060010190610d3a565b5b509050610d639190610d67565b5090565b5b80821115610d80576000816000905550600101610d68565b5090565b6000610d97610d928461123f565b61121a565b905082815260208101848484011115610daf57600080fd5b610dba848285611335565b509392505050565b600081359050610dd1816114f0565b92915050565b600081519050610de681611507565b92915050565b600082601f830112610dfd57600080fd5b8135610e0d848260208601610d84565b91505092915050565b600081359050610e258161151e565b92915050565b600060208284031215610e3d57600080fd5b6000610e4b84828501610dc2565b91505092915050565b60008060408385031215610e6757600080fd5b6000610e7585828601610dc2565b925050602083013567ffffffffffffffff811115610e9257600080fd5b610e9e85828601610dec565b9150509250929050565b600060208284031215610eba57600080fd5b6000610ec884828501610dd7565b91505092915050565b600060208284031215610ee357600080fd5b600082013567ffffffffffffffff811115610efd57600080fd5b610f0984828501610dec565b91505092915050565b60008060408385031215610f2557600080fd5b600083013567ffffffffffffffff811115610f3f57600080fd5b610f4b85828601610dec565b9250506020610f5c85828601610dc2565b9150509250929050565b600060208284031215610f7857600080fd5b6000610f8684828501610e16565b91505092915050565b60008060408385031215610fa257600080fd5b6000610fb085828601610e16565b925050602083013567ffffffffffffffff811115610fcd57600080fd5b610fd985828601610dec565b9150509250929050565b610fec816112ed565b82525050565b610ffb816112ff565b82525050565b600061100c82611270565b611016818561127b565b9350611026818560208601611344565b61102f81611467565b840191505092915050565b600061104582611270565b61104f818561128c565b935061105f818560208601611344565b80840191505092915050565b600061107860268361127b565b915061108382611478565b604082019050919050565b600061109b60208361127b565b91506110a6826114c7565b602082019050919050565b6110ba8161132b565b82525050565b60006110cc828461103a565b915081905092915050565b60006020820190506110ec6000830184610fe3565b92915050565b60006060820190506111076000830186610fe3565b6111146020830185610fe3565b61112160408301846110b1565b949350505050565b600060408201905061113e6000830185610fe3565b61114b60208301846110b1565b9392505050565b60006020820190506111676000830184610ff2565b92915050565b600060208201905081810360008301526111878184611001565b905092915050565b600060408201905081810360008301526111a98185611001565b90506111b86020830184610fe3565b9392505050565b600060208201905081810360008301526111d88161106b565b9050919050565b600060208201905081810360008301526111f88161108e565b9050919050565b600060208201905061121460008301846110b1565b92915050565b6000611224611235565b905061123082826113a9565b919050565b6000604051905090565b600067ffffffffffffffff82111561125a57611259611438565b5b61126382611467565b9050602081019050919050565b600081519050919050565b600082825260208201905092915050565b600081905092915050565b60006112a28261132b565b91506112ad8361132b565b9250827fffffffffffffffffffffffffffffffffffffffffffffffffffffffffffffffff038211156112e2576112e16113da565b5b828201905092915050565b60006112f88261130b565b9050919050565b60008115159050919050565b600073ffffffffffffffffffffffffffffffffffffffff82169050919050565b6000819050919050565b82818337600083830152505050565b60005b83811015611362578082015181840152602081019050611347565b83811115611371576000848401525b50505050565b6000600282049050600182168061138f57607f821691505b602082108114156113a3576113a2611409565b5b50919050565b6113b282611467565b810181811067ffffffffffffffff821117156113d1576113d0611438565b5b80604052505050565b7f4e487b7100000000000000000000000000000000000000000000000000000000600052601160045260246000fd5b7f4e487b7100000000000000000000000000000000000000000000000000000000600052602260045260246000fd5b7f4e487b7100000000000000000000000000000000000000000000000000000000600052604160045260246000fd5b6000601f19601f8301169050919050565b7f4f776e61626c653a206e6577206f776e657220697320746865207a65726f206160008201527f6464726573730000000000000000000000000000000000000000000000000000602082015250565b7f4f776e61626c653a2063616c6c6572206973206e6f7420746865206f776e6572600082015250565b6114f9816112ed565b811461150457600080fd5b50565b611510816112ff565b811461151b57600080fd5b50565b6115278161132b565b811461153257600080fd5b5056fea2646970667358221220b5094aba917a636270083bf7149102946d987c9c263121709f31f76f5d09891264736f6c63430008040033",
  "immutableReferences": {},
  "source": "// SPDX-License-Identifier: MIT\r\npragma solidity >=0.4.22 <0.9.0;\r\n\r\nimport \"../node_modules/@openzeppelin/contracts/token/ERC20/ERC20.sol\";\r\nimport \"../node_modules/@openzeppelin//contracts/access/Ownable.sol\";\r\n\r\ncontract Wallet is Ownable {\r\n\r\n    //we need a token struct to keep track of common token attrivutes such as\r\n    //the token address and its ticker or shorthand identifier\r\n    struct Token {\r\n        string ticker;\r\n        address tokenAddress;\r\n    }\r\n    \r\n    \r\n    \r\n    \r\n    event deposited(address depositedFrom, address depositedTo, uint256 amount, string ticker);\r\n    //we can now create a Token log array to keep track of all our token instaces\r\n    mapping(string => Token) public tokenMapping;\r\n    string[] public tokenList;\r\n    \r\n    //we will begin with a double mapping that maps an address token ticker or symbol\r\n    // which maps to the balance of that token. We can have balances of many types of\r\n    //tokens /eth so we need a mapping to keep track of this\r\n    mapping(address => mapping(string => uint256)) public balances;\r\n\r\n    //now we will create the functions we need \r\n    //function to add tokens\r\n    function getOwner() public view virtual returns(address) {\r\n        return msg.sender;\r\n    }\r\n    function addToken(string memory ticker, address tokenAddress) external onlyOwner {\r\n\r\n        //create new token\r\n        tokenMapping[ticker] = Token(ticker, tokenAddress);\r\n        //add the new token to the token list\r\n        tokenList.push(ticker);\r\n    }\r\n\r\n    //deposit function\r\n    function deposit(uint amount, string memory ticker) external returns(bool _success) {\r\n        require(tokenMapping[ticker].tokenAddress != address(0));\r\n        IERC20(tokenMapping[ticker].tokenAddress).transferFrom(msg.sender, address(this), amount);\r\n        balances[msg.sender][ticker] += amount;  \r\n        _success = true;\r\n        //emit deposited(msg.sender, address(this), amount, ticker);\r\n\r\n        return _success;\r\n    }\r\n\r\n    //withdrawal function\r\n    function withdraw(uint amount, string memory ticker) external {\r\n        require(tokenMapping[ticker].tokenAddress != address(0));\r\n        require(balances[msg.sender][ticker] >= amount);\r\n        balances[msg.sender][ticker] += amount;\r\n        IERC20(tokenMapping[ticker].tokenAddress).transfer(msg.sender, amount);\r\n\r\n\r\n    }\r\n\r\n    function getBalance(address tokenHolder, string memory ticker) public view returns (uint) {\r\n        return balances[tokenHolder][ticker];\r\n    }\r\n}\r\n",
  "sourcePath": "C:/Users/evanm/OneDrive/Documents/EthereumProgramming/Solidity-201/DexProject/contracts/wallet.sol",
  "compiler": {
    "name": "solc",
    "version": "0.8.4+commit.c7e474f2.Emscripten.clang"
  },
  "schemaVersion": "3.3.4",
  "updatedAt": "2021-05-20T15:08:01.117Z",
  "devdoc": {
    "kind": "dev",
    "methods": {
      "owner()": {
        "details": "Returns the address of the current owner."
      },
      "renounceOwnership()": {
        "details": "Leaves the contract without owner. It will not be possible to call `onlyOwner` functions anymore. Can only be called by the current owner. NOTE: Renouncing ownership will leave the contract without an owner, thereby removing any functionality that is only available to the owner."
      },
      "transferOwnership(address)": {
        "details": "Transfers ownership of the contract to a new account (`newOwner`). Can only be called by the current owner."
      }
    },
    "version": 1
  },
  "userdoc": {
    "kind": "user",
    "methods": {},
    "version": 1
  }
}